:020000040000FA
:1000000090070020D5000000E3000000E50000009C
:1000100000000000000000000000000000000000E0
:10002000000000000000000000000000E7000000E9
:100030000000000000000000E900000005190000B9
:10004000611900006D1900006F190000711900009E
:100050005F18000061180000B90E0000651800006C
:10006000D50B0000390E00008B1900008D1900001F
:10007000090B0000790A00006D070000A9070000C5
:10008000F10E0000450F0000ED000000ED00000043
:1000900063180000C9190000671800005D1800000F
:1000A000750A0000000000000000000000000000D1
:1000B0000000000000000000000000000000000040
:1000C0000348854600F008FA0048004789220000EE
:1000D00090070020064880F30888064880470648B5
:1000E0000047FEE7FEE7FEE7FEE7FEE7FEE700006B
:1000F0009007002025190000C100000030B50B4614
:10010000014600202022012409E00D46D5409D42F1
:1001100005D31D469540491B254695404019154677
:10012000521E002DF1DC30BD70B50024254600289C
:1001300001DA01244042002901DA01254942FFF792
:10014000DDFFAC4200D04042002C00D0494270BDDF
:10015000D2B201E00270401C491EFBD2704700225F
:10016000F6E710B513460A4604461946FFF7F0FFB6
:10017000204610BDF0B51FB488B00B990998002433
:1001800048400999C00F490049080991C0070B99D7
:100190000090490049080B9109990898A646084320
:1001A00003D00B990A98084303D1002001460DB0F3
:1001B000F0BD099801244000420D4800410D099806
:1001C00024050003000B204309900B980003000B4B
:1001D00020430B9050181A494018002201901446F1
:1001E000104601E0032801DA034600E003239C46A1
:1001F000C11A0AAE0AE05F0008ADED5B4F00F75B85
:100200007D430027AA187C415B1E491C6145F2DD35
:10021000410004AB5A522104120C0A43240C401C26
:100220000828DFDB01980290009970460191009048
:10023000059B049A0799069800F0FAF8B7E70000C2
:100240000DFCFFFFF0B50C465C4085B0E40FE40701
:1002500003944C000026640859009446490802465D
:100260000296224321D062460A431ED06200570DF7
:100270004A000E032303550D012402462C49240590
:10028000781B1B0B360B4018234326436146009016
:100290001C46501AB44103D30098401C009002E061
:1002A000921800985B41002803DA0020014605B04F
:1002B000F0BD0020012109050746864611E064468D
:1002C0001D46141BB54106D36546521BB341744607
:1002D00007430C43A646CD07400849082843921817
:1002E0005B4105460D43EAD11046184313D06046E2
:1002F000194650407140084303D100220123DB0717
:1003000009E06046101AB34102D20122002302E044
:100310000122D2435310009874460105381C6141F4
:10032000029C039D0019694100F075F8BFE70000C9
:10033000FD0300000EB5C217C10F5040CA07401898
:100340000021054B0293019200910A460B4600F0F2
:100350006FF803B000BD00003304000070B5CD0F8E
:100360004A0009030123090B1B0519430B4BED0739
:100370000024520D9A4201DA002070BD074B34333D
:100380009A4203DC9A1A00F035F802E00449511849
:1003900088402C43F1D0404270BD0000FF030000B4
:1003A000CDFBFFFFC20FD207400040080BD0C10DAC
:1003B0000723DB01C91840020905400A1143C2089E
:1003C00040071143704700200146704710B50029CF
:1003D00004DB0124E40740428C412146002B04DB6E
:1003E0001C460123DB075242A341994200D19042AF
:1003F00010BD000010B5202A04DB0846203AD0408A
:10040000002110BD0B46D340D0402024A21A9140B9
:100410000843194610BD10B5002B08DA0024401C13
:10042000614192185B411A4301D14008400010BD60
:10043000F0B51FB482B005460C0003D0084601F0A9
:10044000C4FA02E001F0C1FA2030024600902146D1
:10045000284600F053F8049B059A04460F461843BB
:100460001143084303D12046394607B0F0BD184672
:10047000104317D0009840210A1A18460599FFF733
:10048000B9FF05460E46009A0599049800F036F823
:10049000084301D0012000E00020C11705430E43AE
:1004A0002C43374300990E986305401A7905E40AF6
:1004B0000A3000220C43FD0A002802DA002001461F
:1004C000D3E70105101969410C9C0D9D0019694184
:1004D000FFF7A1FFC9E70000064C0125064E05E025
:1004E0002046E36807C82B4398471034B442F7D33B
:1004F000FFF7EAFD342F0000542F000010B5202A2A
:1005000004DB0146203A9140002010BD9140202399
:100510009C1A0346E3401943904010BD70B58C18F7
:100520000578401C6B075B0F01D10378401C2A1132
:1005300006D10278401C03E00678401C0E70491C6E
:100540005B1EF9D12B0705D40023521E0DD40B706E
:10055000491CFAE70378401CCB1A921C03E01D7873
:100560005B1C0D70491C521EF9D5A142D8D3002046
:1005700070BD000010B50C490968491E4A1E914122
:10058000CA02012149040B68084C23409A180A60EA
:10059000592212064A604860C868952212064A60CD
:1005A0000A6822400A6010BDA0000040FFF7FFFF6C
:1005B0000021816181828160704730B502461478E4
:1005C000002C1DD00224145F4C43157F23462B4181
:1005D0000424145F4C43957F2C4195686419946002
:1005E000D5689468AC4202DDD468946005E0156972
:1005F0009468AC4201DA146994609468E0181DE0D4
:100600001424145F0C1B0225555F6C43157F234691
:100610002B410424145F4C43957F2C419460D56892
:100620009468AC4202DDD468946005E01569946872
:10063000AC4201DA146994609468E0189182146AFB
:10064000844201DA106A03E0546A844200DD506A91
:10065000906130BD30B50246946864180225555F3C
:100660006C43157F2C4123460424145F4C43957F33
:100670002C41956864199460D5689468AC4202DD99
:10068000D468946005E015699468AC4201DA146995
:1006900094609468E0189182146A844201DA106AC6
:1006A00003E0546A844200DD506A906130BD70B549
:1006B00002460B460224145F9569ED186C43157FC2
:1006C0002C412146146A8C4201DA106A05E0546A12
:1006D0008C4201DD506A00E008460424145F5C434C
:1006E000957F2C410D1A044E7543ED13641B9569DB
:1006F0006419946170BD0000B77E0000FFB583B03F
:1007000015460C9E0D9C30881749401A00B2009087
:10071000009988B200F038FA0290009988B200F08F
:10072000F5F90190019903984143029A04985043C6
:10073000081AC7133946069801410F462878002841
:1007400005D039B22846FFF738FF206006E039B2FD
:100750002846FFF732FF2168401820603068216882
:100760004018306007B0F0BDFF7F000010B50121D8
:100770000C4800F0AAF8002804D00121094800F034
:100780004EF80EE00221074800F09FF8002804D040
:100790000221044800F043F803E07F21014800F003
:1007A0003EF810BD0004014010B501210C4800F0D6
:1007B0008CF8002804D00121094800F030F80EE040
:1007C0000221074800F081F8002804D002210448E3
:1007D00000F025F803E07F21014800F020F810BD6B
:1007E00000050140FFB5012B04D1456E1E468E4029
:1007F000354345668A109207920F8907890F890051
:10080000960005465035AC590F258D40AC43029DEE
:100810008D402543960007465037BD51FFBD9422B9
:10082000115070470246002902D1106800B270478B
:10083000012902D1506800B2F9E7022902D190687B
:1008400000B2F4E7032902D1D06800B2EFE704292F
:1008500002D1106900B2EAE7052902D1506900B25D
:10086000E5E7062902D1906900B2E0E7072902D145
:10087000D06900B2DBE7082902D1106A00B2D6E7DE
:10088000092902D1506A00B2D1E70A2902D1906A3F
:1008900000B2CCE70B2902D1D06A00B2C7E70C291D
:1008A00002D1106B00B2C2E70D2902D1506B00B229
:1008B000BDE70E2902D1906B00B2B8E70F2902D133
:1008C000D06B00B2B3E70020B1E710B502460020BC
:1008D00094239B580B409024A458234201D001201C
:1008E00000E0002010BD000070B505460C46012157
:1008F000084600F0B9FF20886188084390214851DC
:10090000E08A0002A18A09010843618A0843286637
:10091000208AA867A0880003E1888902084321890A
:1009200009020843618909010843A189C9000843F4
:10093000E18908436867618BC4204151A18BC820BD
:100940004151E18BCC204151A1204001FFF712FE23
:10095000154908601548FFF70DFE13494860134814
:10096000001DFFF707FE1049886010480830FFF7A8
:1009700001FE0D49C8600D480C30FFF7FBFD0C4926
:1009800008600A481030FFF7F5FD0949486007483C
:100990001430FFF7EFFD0649886004481830FFF770
:1009A000E9FD0349C86070BD8004014024140000C3
:1009B000800501400021018041808180C18001814A
:1009C00041818181C1810182012141828182C18273
:1009D000002101837047000000B589B001A8FFF72E
:1009E000E9FF002168468180C180018141818181C8
:1009F0000121C18100210182418201218182C182C4
:100A0000018341830021C18301840121418401A923
:100A10001648FFF769FF01A8FFF7CCFF00216846E1
:100A20008180C1800181418181810121C1810021B9
:100A30000182418201218182C1820183418300219F
:100A4000C18301840121418401A90948FFF74CFFBA
:100A500000230A2219460548FFF7C4FE00230D2291
:100A600019460348FFF7BEFE09B000BD000401406F
:100A700000050140704700001CB50320154948607F
:100A8000084640680221084222D0002100910191CD
:100A90000FE0104840690121C903084204D06846AC
:100AA0000078401CC1B2009168460079401CC1B278
:100AB0000191684600790528EBDB68460078032839
:100AC00005DD002000F09EFE30200349486100BF94
:100AD0001CBD000000020140800C014000B5074829
:100AE00007498862C813C1034862642000F0F8FE19
:100AF0000448034908600020886200BD837A000032
:100B000080000040FF0100007047000070B50446FF
:100B100000BF0C480088401C0A4908800846068827
:100B20000120400400F0D0FE062007490860084676
:100B30004460406905B2034800888642E9D12846EE
:100B400070BD00004600002000300140F8B50446AA
:100B50000D4600BF0A480088401C09490880084625
:100B600006880120400400F0AFFE0648046245629A
:100B7000876A034800888642ECD13846F8BD0000F9
:100B8000460000200030014070B5044600BF0C480C
:100B90000088401C0A490880084606880120400455
:100BA00000F092FE0620074908600846446000698C
:100BB00005B2034800888642E9D1284670BD00008E
:100BC000460000200030014010B50121480400F02B
:100BD00063FE10BD704770B504460D460121C80282
:100BE00000F05AFE6868002804D001280BD00228C3
:100BF00012D112E060682968884360602068296823
:100C00000843206012E0606829680843606020683B
:100C100029688843206009E000BF6068296888432C
:100C20006060206829688843206000BF00BFA86812
:100C3000002804D0206929680843206103E0206966
:100C4000296888432061E868002804D0A0692968E1
:100C50000843A06103E0A06929688843A06128696E
:100C6000002804D0E06929680843E06103E0E069F6
:100C700029688843E06170BD30B50C46230000F060
:100C8000BBFE10090F171E252B333A41474F565D07
:100C9000636B7279016A394D29408B1803626AE0EF
:100CA000016A364DE13D294013015B18036262E0A1
:100CB000016A334D294013025B1803625BE0036A4B
:100CC0001905090D13035B18036254E0416A2B4DAB
:100CD00029408B1843624EE0416A284DE13D29408E
:100CE00013015B18436246E0416A254D2940130217
:100CF0005B1843623FE0436A1905090D13035B1853
:100D0000436238E0816A1D4D29408B18836232E0CE
:100D1000816A1A4DE13D294013015B1883622AE084
:100D2000816A174D294013025B18836223E0836AAE
:100D30001905090D13035B1883621CE0C16A0F4D8E
:100D400029408B18C36216E0C16A0C4DE13D294071
:100D500013015B18C3620EE0C16A094D29401302FA
:100D60005B18C36207E0C36A1905090D13035B181A
:100D7000C36200E000BF00BF30BD0000F0FF000014
:100D8000FFF000000246002093680B4201D00120D2
:100D900000E0002070474163704701637047002105
:100DA000016041608160C1600161704700B585B03C
:100DB0006846FFF7F4FF032204211E48FFF75CFF9B
:100DC000032205211B48FFF757FF0322062119487C
:100DD000FFF752FF032207211648FFF74DFF0322BA
:100DE00008211448FFF748FF032209211148FFF7A3
:100DF00043FF012001903F200001009069460D480B
:100E0000FFF7E9FE00220D210A484038FFF734FFC2
:100E100000220E2107484038FFF72EFF00200190E6
:100E2000032040030090694602484038FFF7D3FE94
:100E300005B000BD400D01400248406801494860CE
:100E4000704700000003014010B572B616481749FC
:100E5000886200F033F80120400400680121C904D1
:100E6000084389100860FFF7B7FD00F099FBFFF712
:100E70009DFFFFF7A9FE0E4800F058FD642000F02A
:100E80002FFD0021102000F081FC0E2000F074FCEA
:100E90000F2000F071FC102001218140054A1160F3
:100EA00000BF62B610BD0000837A000080000040E1
:100EB0000077010000E100E0704700000F20800291
:100EC00001494860704700000017014010B5034613
:100ED000881A5843C013841820B210BD30B5146866
:100EE000E41323B2CC1A444315682C19146030BDA6
:100EF00010B50221002000F039F800280DD008219B
:100F00000F48FFF74AFF00F057FF0221002000F0D2
:100F10001BF808210A48FFF73EFF012109050120BF
:100F200000F024F8002804D001210905012000F078
:100F30000BF80020C04302498039486110BD000011
:100F4000000D01407047000001229203914207D832
:100F5000002802D1044A516005E0034AD16002E052
:100F6000CA0B014B5A617047800C014010B5024614
:100F7000002001239B03994217D8002A0AD0114B65
:100F80005B680B400F4C2468234201D0012017E01E
:100F9000002015E00B4BDB680B400A4CA468234291
:100FA00001D001200CE000200AE0064B5B69CC0B6D
:100FB0002340044C2469234201D0012000E000209A
:100FC00010BD0000800C014010B5044601218802CC
:100FD00000F062FCFD48FE4908602620005D2521E6
:100FE000095D890008432421095DC90008432321C4
:100FF000095D090108432221095D49010843E17F98
:1010000089010843A17FC90108432121095D090223
:1010100008432021095D49020843617F8902084392
:10102000217FC9020843EA498039C863A08EE84994
:10103000C0390863E08E4863208F8863608FC8637F
:101040002088E34980390860608848607220005D2C
:101050007321095D090108437421095D49010843B1
:101060007521095D890108437621095D090208435C
:101070007721095D090308437821095D4903084385
:101080007921095D89030843D14980394863A08FDC
:101090000862E08F48624020005B88624220005B6B
:1010A000C862CC48CA4940394861A220005DA321EA
:1010B000095D49000843A821095D89000843A92169
:1010C000095DC9000843AA21095D09010843AB2154
:1010D000095D49010843AC21095D89010843AD213F
:1010E000095DC9010843A421095D89020843A521BE
:1010F000095DC9020843A621095D09030843A72128
:10110000095D49030843AE21095D89030843B049DD
:1011100040390860AF20005DB021095D49000843F7
:10112000B521095D89000843B621095DC90008435E
:10113000B721095D09010843B821095D4901084348
:10114000B921095D89010843BA21095DC901084334
:10115000B121095D89020843B221095DC902084332
:10116000B321095D09030843B421095D490308431C
:10117000BB21095D89030843954940398860BC203B
:10118000005D0001BD21095D49010843BE21095DE3
:1011900089010843BF21095DC9010843C121095DD7
:1011A00009020843C221095D4902084388494039C0
:1011B000086188488649803908614420005B88615D
:1011C0004620005BC861C020005D0863D820005D38
:1011D000D721095D49000843D621095D89000843EC
:1011E000D521095DC9000843D421095D09010843DF
:1011F000D321095D49010843D221095D89010843D2
:10120000D121095DC9010843D021095D09020843C4
:10121000CF21095D49020843CE21095D89020843B7
:10122000CD21095DC9020843CC21095D09030843AA
:10123000CB21095D49030843CA21095D890308439D
:10124000C921095DC9030843614940398861C32048
:10125000005DC421095D49000843C521095D89007D
:101260000843C621095DC9000843C721095D09017A
:101270000843C821095D4901084355494039C861FF
:101280004820005D4921095D490008436121095D4D
:10129000890008436021095DC90008435521095DA3
:1012A000090108435421095D490108436C21095D86
:1012B00089010843218DC90108434A21095D0902BA
:1012C00008434B21095D490208436321095D8902F6
:1012D00008436221095DC90208435721095D0903DA
:1012E00008435621095D490308436D21095D8903BF
:1012F0000843618DC90308433549403908624C20D1
:10130000005D4D21095D490008436521095D8900A3
:1013100008436421095DC90008435921095D090199
:1013200008435821095D490108436E21095D89017F
:101330000843A18DC90108434E21095D09020843F4
:101340004F21095D490208436721095D890208436D
:101350006621095DC90208435B21095D0903084351
:101360005A21095D490308436F21095D8903084338
:10137000E18DC90308431649403948625020005D99
:101380005121095D490008436921095D890008432D
:101390006821095DC90008435D21095D0901084311
:1013A0005C21095D490108437021095D89010843F9
:1013B000218EC90108435221095D090208435321C6
:1013C000095D490208436B21095D05E0ADDE0000BF
:1013D000C00C0140FFFF0000890208436A21095D3B
:1013E000C90208435F21095D090308435E21095DC5
:1013F000490308437121095D89030843618EC903CC
:10140000084361498862A0885F4980390860E088A4
:101410004860208988606089C860A0890861E08987
:101420004861208A8861608AC861A08A0862E08A6F
:101430004862208B8862608BC8627F20005D8000DC
:101440008021095DC90008437A21095D090108432B
:101450007B21095D490108438121095DC9010843D8
:101460007D21095D090208437E21095D8902084347
:101470007C21095DC9030843434908638720005D57
:1014800080008821095DC90008438221095D0901A6
:1014900008438321095D490108438921095DC90188
:1014A00008438521095D090208438621095D8902F7
:1014B00008438421095DC9030843334948638B20ED
:1014C000005D8A21095D490008438D21095D89007D
:1014D00008438C21095DC90008438F21095D09017A
:1014E00008438E21095D490108439121095D890165
:1014F00008439021095DC90108439321095D090250
:1015000008439221095D490208439521095D89023A
:1015100008439421095DC90208431B49886396204A
:10152000005D9721095D490008439821095D890004
:1015300008439921095DC90008439A21095D090101
:1015400008439B21095D490108439C21095D8901EC
:1015500008439D21095DC90108439E21095D0902D7
:1015600008439F21095D49020843A021095D8902C2
:101570000843A121095DC90208430349C863034820
:1015800001494031086010BD800C0140FECA0000D6
:1015900010B50446E4212046FEF7E1FD10BD000031
:1015A00000B5B9B06846FFF7F3FF012108A8417103
:1015B000002181710C2130A801700020C0433890B7
:1015C00001216846C1776549018065498180654987
:1015D000C1806349018163494181614981816149D8
:1015E000C181002101854185818573218187C18762
:1015F0000021417708A8417010A8818018A8817443
:101600000121C17400210175417528A88170C17044
:10161000C17610A8017241728172C1720173417367
:1016200018A801734173817320A88172C17201737C
:1016300041738173C1738175C1750176417681767D
:10164000C17618A8817628A80177012118A84177CA
:101650000021C177C17628A8417718A8817720A8F2
:101660000170417018A80177684681773B49418035
:101670003B4901823B494182394981823949C182D2
:1016800037490183374941830021C185018641865D
:10169000732110A80180418000216846017708A8C5
:1016A000017010A8C18018A881750121C1750021A1
:1016B0000176417628A8C173012101740021C17609
:1016C0002949684681862549491EC18626490187E0
:1016D0002249491E4187002110A88173C1730174FA
:1016E00041748174C17418A8C1730174417420A835
:1016F000017441748174C1740175417501210177D0
:1017000041778177C17728A801704170002120A816
:10171000817028A88177012120A841710021C17121
:10172000C17028A8C177012120A881710021017210
:101730004172017108A8C17001218170880200F016
:10174000ABF80A480A490860672048600948086001
:101750006846FFF739FC39B000BD0000850800007D
:10176000DFFD00002102000085F70000ADDE000073
:10177000C00C0140FECA0000C206D20E01219140F9
:10178000014A11607047000080E100E010B50028B8
:1017900019DA1A4A03071B0F083B9B089B00D25813
:1017A0008307DC0EFF23A3409A438B071B0E84079D
:1017B000E40EA3401A43114B0407240F083CA4086D
:1017C000A4001A5118E00E4A03231B02D218830802
:1017D0009B00D2588307DC0EFF23A3409A438B075C
:1017E0001B0E8407E40EA3401A43054B0324240276
:1017F0001B198408A4001A5110BD00001CED00E064
:1018000000E100E01349144A116000280FD1124989
:101810004039096B402291430F4A403A1163114607
:10182000496B402291430C4A403A51630EE00A4909
:101830004039096B40221143074A403A116311466F
:10184000496B40221143044A403A51630021024A45
:1018500011607047ADDE0000C00C0140704770475A
:101860007047704770477047094A0A4B9A620029CF
:1018700005D0DA05526A0243DB055A6206E001220E
:101880009207526A824301239B075A627047000005
:10189000837A000080000040094A0A4B9A620129BD
:1018A00004D11A46D2690243DA6104E0054AD269DA
:1018B0008243044BDA610022024B9A6270470000B7
:1018C000837A0000800000400349044A9162114677
:1018D0004862012191627047837A000080000040D5
:1018E00008B50021009103E000BF0099491C009158
:1018F00000998142F8D308BD10B500F081F900F0DD
:10190000CBF810BD10B506480068002804D0044884
:101910000068401E0249086001F006FB10BD00008F
:101920000000002000B5FFF7D9F800BD10B504464F
:10193000601E0949884201D9012010BD601E074977
:1019400048610321081FFFF721FF00200349886138
:10195000072008610020F0E7FFFFFF0000E000E043
:101960000420014908627047000601407047704733
:10197000704770B504460D46A0B2FFF705F96880C0
:10198000A0B2FFF7C3F8288070BD70477047000011
:1019900070B50C4D00242C5F44432E460225755F24
:1019A0004D43641BE41324B21480354602242C5F9B
:1019B00044430025755F4D436419E41324B21C8031
:1019C00070BD0000B001002070472021020C01D042
:1019D00010211046020A01D008391046020901D030
:1019E000091F1046820801D0891E1046420801D006
:1019F000881E7047081A704730B47446641E2578F4
:101A0000641CAB4204D3635D5B00E31830BC184731
:101A10001D46F8E702E008C8121F08C1002AFAD1E3
:101A200070477047002001E001C1121F002AFBD15E
:101A3000704710B500F0B8FC10BD000000B585B0CF
:101A40006846FFF7ACF901200190C0030090694699
:101A50001048FFF7C0F80121C9030E48FFF79DF9B0
:101A6000012001903820009069460A48C038FFF7ED
:101A7000B2F820210748C038FFF78FF91021054838
:101A8000C038FFF78AF908210248C038FFF785F906
:101A900005B000BDC00D014000B585B000200E4965
:101AA00008700E4908700E49087000F021F80020F7
:101AB00001900120C002009069460A48FFF78BF8A8
:101AC0000121C9020748FFF75DF940B206490870D5
:101AD0000649087005B000BD42000020400000200B
:101AE00041000020800D0140440000204300002000
:101AF00010B51148114908800F482530488010481A
:101B00004860104888600A460221515E0020105E3D
:101B100000F036FA0949486800F072FA0749886807
:101B200000F060FA05220849880000F03BFA7D20A9
:101B3000400100F02FFA10BD123B0000E001002030
:101B400058740000E8A000003359360710B501466C
:101B50002E224A43D313134C0022A25E2E2462434A
:101B6000D2139B1A104C0022A25E104C62439213B7
:101B70009B180F4C0022A25E0C4C11346243D2130E
:101B80009A1A10B20B4B00229A5E064B1A80094A31
:101B90001180054B00229A5E054B1A80024A108084
:101BA00010BD0000D2010020CC010020907F000079
:101BB000CE010020D0010020002004490880044903
:101BC000088004490880044908807047D201002039
:101BD000D0010020CE010020CC01002000200449CB
:101BE0000880044908800449088004490880704737
:101BF000DA010020D8010020D6010020D401002005
:101C0000F0B58BB006A8FFF7CAF806A8FFF7C7F82B
:101C1000012007900820069006A95348FEF7DBFF35
:101C20000020524908704860514908708860C860B7
:101C3000486050485049C8600846C0684000086184
:101C40004E484F49C860C86800F012FB4C49886094
:101C50007F20C00508604B4848604868FEF76AFB73
:101C60000191009046490868FEF79CFB044600225B
:101C7000454BFEF77FFA0646019B009AFEF77AFA7B
:101C80000022424B03910290FEF7DCFA059104908A
:101C9000FEF764FB3A49086208468068C861084656
:101CA0008068496840183649086108468068496874
:101CB000401A3349486101200876002088640021D9
:101CC0002F484030017320380171002030490870DE
:101CD000012008772F4848602F4808812F48088244
:101CE000084600894881084641682D48FEF71CFADD
:101CF0000446C00F00194010254948610020886142
:101D000000211F48403041730020264908702649B1
:101D1000087026490870FFF74FFF00F00FFBFFF730
:101D20005DFF00F01DFB224A0021084600F078F913
:101D30001F48C088404280B21E4908601C48C088C5
:101D400048601B480089404280B28860184800897A
:101D5000C86017484089404280B2086114484089F1
:101D600048610BB0F0BD0000000D01406003002091
:101D70006C0300205874000050020020E8A000000E
:101D800064020020AA2A000000001040007CD54018
:101D9000B402002026020000323300008808000050
:101DA000F05500008A0100208801002089010020F0
:101DB000EC010020000C01401CB500215E48FEF73C
:101DC00031FD5E490988401A00B25D490880002152
:101DD0005C48FEF727FD5C490988401A00B2584963
:101DE000488008460C30011F554A0091019000219F
:101DF000515E0220105E0023544AFEF77FFC5048DB
:101E00000079002807D101204D490871886800F049
:101E100043FA4B4988604A48806840004849086155
:101E2000084600694A490969401A45490861086934
:101E300000F032FA4249C8624648007846490978BB
:101E4000884207D0444800784449087041480078E7
:101E50004149087042480078002803D14148007881
:101E6000002807D009203C49087000203E494881DD
:101E700008812FE0384800780300FFF7BDFD090610
:101E80000F1512181B1E21242800002036494881F6
:101E900008812B480069354908601BE000F072FAA0
:101EA00018E000F04BFB15E000F0FEFB12E000F044
:101EB00065FC0FE000F026FE0CE000F0E1FE09E01A
:101EC00000F076FE06E00020FFF79CFC1CBD00BF82
:101ED00000BF00BF264925480068FFF74AFD224A97
:101EE0000A21515E0820105E224B9A1EFFF750FD1A
:101EF000204A0A3A0A21515E0820105E1E4A00F06C
:101F00008FF81D48C088404280B21C4908601A48BA
:101F1000C088486018480089404280B288601648EE
:101F20000089C86014484089404280B20861124864
:101F30004089486100BFC9E700050140A0010020B9
:101F40001802002000040140A201002048000020E7
:101F5000500200208A010020880100208901002011
:101F60006C0300206003002000020020AC01002070
:101F7000B001002016020020EC010020000C0140FE
:101F8000024A1080024A118070470000A001002020
:101F9000A201002001460248418000207047000055
:101FA0006003002010B50346044803614161AB2083
:101FB0005043024CE061002010BD00006C03002083
:101FC00070B505460C460120FFF71CFC01200349B3
:101FD0000870034805804460002070BD8A0100201D
:101FE000B801002010B504460448C4600146C86822
:101FF00000F03EF90149886010BD00006402002035
:1020000010B50446204600F047F90449C860C86886
:1020100000F02EF90149086110BD000050020020B7
:1020200070B5002918DB00280ADB754B4B43C4034D
:10203000A34202DB0223938026E00123938023E066
:102040006F4B5B424B43C403A34202DB03239380E9
:102050001AE00223938017E000280BDB684B5B42F9
:102060004B43C403A34202DB052393800CE0062309
:10207000938009E0624B4B43C403A34202DB042379
:10208000938001E00523938094882300FFF7B4FC3C
:1020900007AF051F3D597593AF00C603584D4D431B
:1020A000751BED12574E7543EB14574D4D43ED1212
:1020B0007543EC1435465D192D19ED032D0CD580B3
:1020C000D588ED1A158115892D1B55818FE0C60322
:1020D0004B4D4D437519ED124A4E7543EB14C50334
:1020E0006E42474D4D437519ED12464E7543EC1443
:1020F00035465D192D19ED032D0C158115892D1B04
:10210000D580D588ED1A558171E03F4D4D43ED12D4
:102110003C4E7543EB14C5036E42394D4D43751B60
:10212000ED12384E7543EC1435465D192D19ED034B
:102130002D0C15811589ED1A558155892D1BD580DA
:1021400055E0C5036E422E4D4D437519ED122D4ECF
:102150007543EB142C4D6D424D43ED127543EC1459
:1021600035465D192D19ED032D0C558155892D1B13
:1021700015811589ED1AD58039E0C5036E42204DD1
:102180004D43751BED121F4E7543EB14C6031C4DDA
:102190004D43751BED121B4E7543EC1435465D190E
:1021A0002D19ED032D0C55815589ED1AD580D58853
:1021B0002D1B15811BE0144D6D424D43ED12114E48
:1021C0007543EB14C6030E4D4D437519ED120D4EBC
:1021D0007543EC1435465D192D19ED032D0CD58092
:1021E000D5882D1B55815589ED1A158100BF00BF7B
:1021F000D38893811389D3815389138270BD0000E2
:10220000E649000085080000CC93000010B5154891
:102210000068401C13490860084600687D21C90019
:1022200088421DD31048007800280BD020210F4889
:10223000FEF7B1FD10210D48FEF7ADFD00200A4963
:1022400008700AE020210948FEF7A7FD1021074881
:10225000FEF7A3FD01200449087000200149086031
:1022600010BD00000C00002010000020000D0140F7
:1022700010B504466100034A1269881A00F00CF890
:1022800010BD000050020020FEF7DEFDFFF7D6FB78
:10229000FFF732FB00BFFEE770B505460749284649
:1022A000FEF754FC0646F003801B40002C1A002C5D
:1022B00001DA02482418204670BD0000FEFF00002D
:1022C00010B50146174A4A43D313174C0022A25EA9
:1022D000164C624392139B18154C0022A25E114CBF
:1022E0006243D2139B18134C0022A25E0F4C624330
:1022F00092139B1A104C0022A25E0A4C673C624368
:10230000D2139A1A10B2084B00229A5E084B1A8018
:10231000054A1180074B00229A5E074B1A80054A36
:10232000108010BD987F0000C4010020A780FFFF2F
:10233000C6010020C0010020C20100200020044985
:1023400008800449088004490880044908807047CF
:10235000C6010020C4010020C2010020C0010020ED
:102360000020044908800449088004490880044981
:1023700008807047CA010020C8010020DE0100204B
:10238000DC01002005484068054908600020054937
:10239000488102480088088170470000B801002089
:1023A000AC0100200002002010B51248124A01685A
:1023B0000020105EFFF704FE0E48006846300D490D
:1023C000086000BF08460068002805DA0846006873
:1023D0000A494018074908600648006807498842CA
:1023E00004DD04480068401A0249086000BF00206C
:1023F00010BD00003400002030000020FEFF00006F
:1024000070B546490869FFF747FF45490989401AF1
:1024100005B24448007800280DD12846FFF796FB06
:10242000404988852846FFF74BFF3D498968401899
:102430003A49886104E03A48806840193749886120
:102440003648C0693549896940183449C861C86946
:10245000C821FEF77BFB314908620846C069096A5A
:10246000401A2E49C861086AFFF716FF2B494862D7
:102470000A46516A2A4AD06900F03AFD04B22A4855
:10248000844202DD2649888609E02748404284428A
:1024900002DA2349888602E020B221498886204852
:1024A0003421415E2148FEF788F806B21C4A3832D2
:1024B00031461F48FEF712FD1948806BC01300B269
:1024C0001749C8861548006B144934228A5E801863
:1024D00008630846008C0A46128E801A01B215481D
:1024E000FEF76BF800B20D4988860846808E4001E1
:1024F00000B2C8860846C08E08850948C08E098D7E
:10250000401A00B20549488508462A21415E0A481A
:10251000FEF753F800B20249888770BD1802002008
:1025200064020020B4020020B77E00009800002062
:1025300066060000E8000020C000002010B55048EA
:102540000078002804D0012819D002287ED193E019
:1025500000204B494860886088814A48C881002033
:1025600008824848488200208882C882012008707A
:102570000020454948810881444908607EE0404880
:102580004068401D3E4948604868FFF785FE3F4966
:10259000086000213E48FEF745F9044638481422F9
:1025A000825E2146FF204830FEF790FC3449888245
:1025B00000213848FEF736F9044631481622825E7B
:1025C0002146FF204830FEF781FC2D49C88208468D
:1025D00040683149884227DD29491420085E0C22D1
:1025E0008A5E904202DD0846808A88812449142050
:1025F000085E0E228A5E904202DA0846808AC8810E
:102600001F491620085E10228A5E904202DD0846AD
:10261000C08A08821A491620085E12228A5E9042F9
:1026200002DA0846C08A4882154840681B49884239
:102630001BDD13490C20085E0E228A5E80184010B4
:10264000174908800E491020085E00E015E01222AC
:102650008A5E801840101349088000200A4948818A
:10266000088102200649087005E0002006494881DB
:1026700003484088088101E000E000BF00BF10BDB2
:1026800030030020FF7F000000020020AC0100208A
:1026900000050140000401401C070000F4FF050094
:1026A000A0010020A201002010B52B4800780028CE
:1026B00004D0012813D0022848D146E00020274941
:1026C000086027490860244840882649088100207E
:1026D00048812149486088600120087037E01E4821
:1026E0004068401C1C494860084640681E498842B2
:1026F0002ADD0846184948601C498868FFF7CCFD68
:102700001649096840181549086013488068401C3C
:1027100011498860084680681549884214DD0E48D2
:1027200081680E480068FEF711FA0D4908600846F6
:1027300000680949C8600F49C868FFF799FD0D494D
:10274000886002200449087001E000E000BF00BF7B
:1027500000200949086010BD500200208C010020B3
:102760009001002000020020F82A0000180200203A
:102770009808000064020020AC01002070B5D34826
:102780000078002806D0012828D002287AD0032813
:1027900077D1C6E00020CE490860CE490860CB4919
:1027A00088610861086248620863C861CA48FDF729
:1027B000FFFECA48FDF7FCFEC948FDF7F9FEC9490E
:1027C0008868FFF769FDC74988608868FFF750FD92
:1027D000C44908610120BD490870A4E0BB48806974
:1027E000401CBA498861BF498868FFF755FDB84960
:1027F00009684018B6490860B44880697D21C9005D
:10280000884224DDB1488169B1480068FEF79EF92D
:10281000B049086008460068FFF73EFDAB494860D4
:10282000072088600A465168AF4AD06800F060FB14
:10283000A649C8600846C068002802DD012048702B
:1028400002E00020A14948700220A04908709F487A
:10285000006AA449096940189C490862086A642111
:10286000FEF774F9994948620846006A496A401AB5
:10287000964908620846406A88630020888752E0CB
:1028800000E04FE091480069401C9049086108460B
:102890000069052844DB00200861084640780028CC
:1028A0001ED00846C068896888420DDD8748C06828
:1028B00086498968401A8549C86008464068896821
:1028C0004018824948602BE0804840687F49C968C9
:1028D00040187E4948600020C860032008701FE04F
:1028E0007A48C06879498968494288420DDA774850
:1028F000C0687649896840187449C86008464068CD
:102900008968401A714948600AE0704840686F4918
:10291000C96840186D4948600020C86003200870ED
:1029200001E000E000BF00BF68480078022808DA34
:1029300000206E49488108816A4800696C49086036
:10294000C2E06248006A6749096940185F49086245
:10295000086A6421FEF7FAF85C4948620846006A92
:10296000496A401A59490862486AFFF795FC574975
:1029700088620846406840005E490969401A534928
:10298000486108464069496A441A5B48844202DD4E
:102990004E49888509E058484042844202DA4B4952
:1029A000888502E020B2494988854848806B4749BC
:1029B0003C228A5E801888630846808C0A46128F03
:1029C000801A01B24648FDF7F8FD00B23F498887FA
:1029D0000846808F400100B2C88708462C21415E1E
:1029E0003D48FDF7EAFD05B2384A303229464348F2
:1029F000FEF774FA3548006BC01300B23349C8853E
:102A00000846C08DC98F401A00B2304988860846F2
:102A10003421415E3148FDF7D0FD01B22B484030F2
:102A200001804038007803283FD128492C20085ED7
:102A300000F072FAFF21F531884205DA2348C069B7
:102A4000401C2249C86108E02048C069002804DD14
:102A50001E48C069401E1D49C8611C492C20085EE3
:102A600000F05AFA0546194840300021415E021D27
:102A70002846FEF733FA1549C869FDF75BFC0546A1
:102A800000221F4BFDF7A2FC0AD2DC200F49C861CF
:102A90000846406CC01301B20C484030018108E088
:102AA0000A4840300188018103E00848403001882D
:102AB00001810648403000890C4948810020088186
:102AC0000248806A0A49086070BD0000E4020020E4
:102AD0008C0100209001002010010020380100200E
:102AE0006001002018020020640200200002002083
:102AF000AC01002050020020B77E0000CC0C00008A
:102B000000806B4010B522480078002804D00128CE
:102B100010D0022836D134E000201E4908601E493A
:102B200008601E4908601E49088148810120184933
:102B3000087028E01B498868FFF7AEFB1549096853
:102B400040181449086015480068401C1349086083
:102B500008460068642813DD084601680D480068CF
:102B6000FDF7F4FF0C490860084600680E49C8608C
:102B7000C868FFF77DFB0C49886002200449087093
:102B800001E000E000BF00BF00200849086010BD60
:102B9000B40100208C01002090010020940100204D
:102BA000000200201802002064020020AC01002076
:102BB00010B52E480078002804D001280BD0022838
:102BC00050D147E0012029494870002088604861C1
:102BD0000120087047E025484069401C23494861AE
:102BE000084640690969884218D220488068401C1C
:102BF0001E498860084680684968884211D91B4888
:102C00004078002803D000201849487002E00120D5
:102C10001649487000201549886002E002201349D7
:102C2000087000201249088110484078002804D01C
:102C30000E48808900B2488105E00C4880894042F6
:102C400000B20B4948810B498868FFF725FB0A4908
:102C5000086008E0002006494881088104200749EF
:102C6000087000E000BF00BF10BD00004803002056
:102C70000002002064020020AC0100208A01002034
:102C800010B5FFF7BDFB91480079002803D0002163
:102C90008E48017100BF8D482030407B00281ED136
:102CA0008B48806889492039C9688A4A891A8842CC
:102CB00007DB8748806885492039C96889188842B8
:102CC0002DDD8548006A401C834908620846006A79
:102CD000162824D901217D48203041731FE07B480C
:102CE0002038C0687D49401A79498968884216DAD7
:102CF0007748806875492039C968784A89188842B8
:102D00000DDA7548006A002805DD7348006A401E28
:102D10007149086203E000216C48203041736E481D
:102D20002C21415E002906DD406A6B492C228A5E17
:102D30008018486206E06848406A67492C228A5E2B
:102D4000801A48626448406A0012634988620846F3
:102D5000406A896A401A6049486208468069401C96
:102D6000886108468069496988421BDD00205A490C
:102D700088610846007F00280AD0002008770846AE
:102D800000894042498A401A00B25349488109E00B
:102D900001205149087708460089498A401800B245
:102DA0004D49488149482030407B002802D000200E
:102DB00049494881454820381821415600291CDDE1
:102DC000C06942492039096A401840492039C86120
:102DD0000846C069096988422DDB3C4820380069F3
:102DE0003A492039C861002008760121374801712D
:102DF00000203649203988621DE034482038C069F7
:102E000032492039096A401A30492039C8610846D8
:102E1000C069496988420EDC2C48203840692B493A
:102E20002039C8610120087601212848017100205D
:102E300026492039886225482030407B002819D057
:102E40002348806821492039C968884205DA002072
:102E5000234908812348488105E000202049088152
:102E60002048404248811A490869FFF715FA1E496F
:102E700008602AE000201A490881144920393C20C2
:102E8000085E15490A228A5E84182046002801DA65
:102E9000414200E001461548814209D9002C02DD7B
:102EA0000F4948810DE0114840420D49488108E032
:102EB00006482038808F08494989401800B20849DF
:102EC00048810348406A0849086010BD8402002018
:102ED00018020020AA2A0000B402002022020000EA
:102EE0000002002098590000AC010020F4680000A6
:102EF0000246501A064B984202DB5B00C01A05E0FE
:102F0000034B5B42984201DC024BC0187047000043
:102F1000FF7F0000FEFF00000146002902DA484260
:102F200080B2704788B2FCE710B5FEF782FDFFF76C
:102F30006DF910BD542F000000000020E0010000DA
:102F40001C050000D42F0000E0010020B0050000A7
:102F5000241A00000111BA0107F9080316FF3F12F5
:102F60000165FF0FFF0F800998999939686666C659
:102F70001A0C02691419485B40474D23991985675B
:102F8000E6FFFF120E7A0F141950796A2365668BDB
:102F90009B99281A0F026914120174EC4FA323980D
:102FA000598B68A6281A0A28691419736A6078E987
:102FB000A0297889A083FF072332538BCEAC501A07
:102FC0000C286914A97823CC4CCB34B37869140944
:042FD0002678015806
:04000005000000C136
:00000001FF
