:1000000040160020C1000000CB000000CD00000021
:1000100000000000000000000000000000000000E0
:10002000000000000000000000000000CF00000001
:100030000000000000000000D1000000750F00006B
:10004000D5000000D5100000D9000000DB00000042
:10005000DD000000E1100000E100000001000020D0
:100060003D060000E700000000000000E90000007D
:10007000EB000000ED0000001100002095030000DF
:10008000F3000000F500000061060000F900000028
:10009000FB000000FD000000FF0000000101000067
:1000A0000301000005010000070100000901000034
:1000B0000B0100000D0100000F0100001101000004
:1000C00014481549016015480047FEE7FEE7FEE7C2
:1000D000FEE7FEE7FEE7FEE7FEE7FEE7FEE7FEE7F8
:1000E000FEE7FEE7FEE7FEE7FEE7FEE7FEE7FEE7E8
:1000F000FEE7FEE7FEE7FEE7FEE7FEE7FEE7FEE7D8
:10010000FEE7FEE7FEE7FEE7FEE7FEE7FEE7FEE7C7
:10011000FEE700000CA004400000050021010000E3
:100120000348854600F0DCF800480047251D000024
:100130004016002030B50B46014600202022012445
:1001400009E00D46D5409D4205D31D469540491B0B
:100150002546954040191546521E002DF1DC30BD54
:1001600070B500242546002801DA01244042002908
:1001700001DA01254942FFF7DDFFAC4200D04042E1
:10018000002C00D0494270BD0EB5C217C10F5040BF
:10019000CA0740180021054B0293019200910A46BC
:1001A0000B4600F04AF803B000BD00003304000025
:1001B00010B5002904DB0124E40740428C412146AC
:1001C000002B04DB1C460123DB075242A3418B4278
:1001D00000D1824210BD000010B5002904DB0124CB
:1001E000E40740428C412146002B04DB1C460123DE
:1001F000DB075242A341994200D1904210BD00005A
:1002000010B5202A04DB0146203A9140002010BDA1
:10021000914020239C1A0346E3401943904010BDAF
:1002200010B5002B08DA0024401C614192185B4194
:100230001A4301D14008400010BDF0B51FB482B090
:1002400005460C0003D0084600F055FF02E000F020
:1002500052FF20300246009021462846FFF7D0FF8B
:10026000049B059A04460F4618431143084303D1E3
:100270002046394607B0F0BD1846104317D0009805
:1002800040210A1A1846059900F03CF805460E462A
:10029000009A05990498FFF7B3FF084301D00120A5
:1002A00000E00020C11705430E432C43374300995B
:1002B0000E986305401A7905E40A0A3000220C43BF
:1002C000FD0A002802DA00200146D3E701051019D3
:1002D00069410C9C0D9D00196941FFF7A1FFC9E719
:1002E000064C0125064E05E02046E36807C82B436F
:1002F00098471034B442F7D3FFF716FFB41D00003F
:10030000E41D000010B5202A04DB0846203AD04046
:10031000002110BD0B46D340D0402024A21A9140AA
:100320000843194610BD70B58C180578401C6B0742
:100330005B0F01D10378401C2A1106D10278401CC2
:1003400003E00678401C0E70491C5B1EF9D12B0798
:1003500005D40023521E0DD40B70491CFAE7037814
:10036000401CCB1A921C03E01D785B1C0D70491CCD
:10037000521EF9D5A142D8D3002070BD03B4014864
:10038000019001BD3900002003B40148019001BD76
:10039000510E0020044841680905002902DA0121B4
:1003A000C90241607047000080A00A400168012234
:1003B0001203914301607047F0B505460C468B4827
:1003C0008B4B2E1803D19868191108439860284662
:1003D000FFF7ECFF19680F200004814319601868CB
:1003E00021780907090B084318602B46FF33813336
:1003F000986A182188439862986A21788906890F3B
:10040000C90008439862586A7F21090688435862E8
:10041000207861788009400709060843596A084333
:100420005862586A734908405862586AA1780909A5
:10043000490008435862A0786F4F0209184601210D
:100440004030002A29D07969416303218163186A09
:10045000790588431862186AA17809070843186269
:1004600021892846CA04C030002A2BDA0A0B090564
:10047000090DC94319630169604F39400161016980
:10048000A7883F04394301610169090B0903016130
:100490000169A788394301611DE0594A1160B969B2
:1004A0000903090C9160BF693F0D57603A040A4384
:1004B000426303218163586AA1780907090D084343
:1004C0005862CDE7CAB20169090B090301610169EC
:1004D000A7883943016128684A490840286028688C
:1004E000A179490508439103A27A520311430843B5
:1004F0002860186A444908401862186A0F210904E4
:10050000084318620020A8604048E860A08982077C
:10051000C107D20FC90F920011434207D20F120137
:1005200011430207D20F92011143C206D20F1202E9
:1005300011438206D20F920211434206D20F1203D8
:1005400011430206D20F92031143C205D20F1204C7
:1005500011438205D20F920411434205D20F1205B6
:100560000005C00F114380050143A8680143A9603D
:10057000E0898207C107D20F890FD20011434207D9
:10058000D20F520111430207D20FD2011143C2060A
:10059000D20F520211438206D20FD20211434206F9
:1005A000D20F520311430206D20FD2031143C205E8
:1005B000D20F520411438205D20FD20411434205D7
:1005C000D20F52050005C00F1143C0050143A868B2
:1005D0000143A960002E07D1A089E189084303D017
:1005E00001200B4980030860F0BD00000070FBBFD4
:1005F00000000040F9F8FFFF80000040FFFF00F01E
:10060000A4110020FF1F1EFEFF00F0FFFFFF0700E8
:1006100000E100E010B50446084600F0B7FD000117
:1006200000190069C007C00F10BD01680122120344
:100630001143016070470121416070470549012065
:100640004861BFF34F8F05490348C860BFF34F8F20
:10065000FEE7000000A00A400400FA0500ED00E0FB
:1006600001490120486170478088044005494018CD
:1006700004D18804816882121143816002490020FC
:100680000870704700D0FFBFB01100200449401827
:1006900004D1C80481684212114381607047000090
:1006A00000C8FFBF10B572B6084B0A4A0849126865
:1006B000212802D21846904706E0422802D2184666
:1006C000904701E00448904762B610BD419208008F
:1006D000ACFF110BB411002041A20800006BC84010
:1006E000C007C00F70470000FFB581B00B9F0A9E86
:1006F00005462F4C2F48610328180122002811D0ED
:10070000CB14C01A04D00F229203801A0FD103E039
:100710008868104388600AE0886802221043886075
:10072000254C04E08868102210438860234C012384
:1007300000222046029900F00DFA029A0120039946
:10074000904001291CD0696881436960049901299E
:100750001AD0E11DF9310A6882430A60012E19D0CE
:10076000E11DFF31FA310A6802430A600121890262
:10077000012F16D061180A6882430A6005B0F0BDE7
:10078000696801436960E1E7E11DF9310A680243E4
:100790000A60E3E7E11DFF31FA310A6882430A602B
:1007A000E4E761180A6802430A6005B0F0BD000082
:1007B00000000A4000C0FFBF10000A4080000A404D
:1007C00010B500F0A5F800F043F900F0E5F8134883
:1007D000FFF75CFF1248FFF749FF00F02BF800F02D
:1007E00093F900F00FF900F090F90E487D21C9004F
:1007F0000068FFF79FFC0C49401E88420CD80B494B
:1008000048610B480722C3691B021B0A4C0423439F
:10081000C361002088610A6110BD000000380040FB
:1008200000300040C0110020FFFFFF0000E000E0AA
:1008300004ED00E070B584B0244C002307220921A8
:10084000204600F087F9224D002307220821284680
:1008500000F080F91F4E002307220921304600F0E6
:1008600079F900231A460421204600F073F9002389
:1008700007220821284600F06DF9002307220521F0
:10088000304600F067F990206B46187004215970CB
:10089000072098709980002098710F4A1A819872E9
:1008A0009981D8810D4C69462046FFF785FD0C499A
:1008B0000A68FF20000482430A600120094980037E
:1008C00008602046FFF7B1FE04B070BD80000A400A
:1008D00000000A4010000A4005100000009004408B
:1008E0000CE400E000E100E006490220086106484F
:1008F0000168090A09020160FF200449013008600B
:100900007047000000A00A4008E400E000E100E0B9
:1009100010B51748C0681749000E48606438088051
:10092000002307220E21144800F014F900230722A7
:100930000E21124800F00EF901211148C902416050
:100940000268104B1A43026082680A4382600E49B3
:10095000016181688215114381600C4801680902B8
:10096000090A01600A49D00108600A49086010BDFF
:10097000800000409C11002000000A4010000A4046
:1009800080A00A40084008000100FA000CE400E0E2
:1009900000E100E080E100E070B582B00024164E76
:1009A0000125234622462146304600950194FFF753
:1009B0009BFE00231A460921104800950194FFF779
:1009C00093FE00231A4608210D4800950194FFF775
:1009D0008BFE00231A460921304600950194FFF74B
:1009E00083FE002300941A46072130460194FFF746
:1009F0007BFE02B070BD00000008044000400040D3
:100A00000048004010B50F4C002307220E2120465D
:100A100000F0A0F8002307220D21204600F09AF8EC
:100A2000002307220921204600F094F80023072222
:100A30000821204600F08EF80348016B034A114359
:100A4000016310BD00000A4040A00A400F00000FE3
:100A500070B58AB002206A46107201235381214882
:100A600090814110D1814820508200240594118347
:100A700090839477D47708AA14709370D4700994F3
:100A8000194D02A9284600F0CBF808AA9470D4703A
:100A9000164E02A9304600F0C3F8164914484860C3
:100AA000032000F075F9002300941A4612492846E5
:100AB000019400F0A3F8002300941A460F49304631
:100AC000019400F09BF800F06FF80D4801680902EE
:100AD000090A0207114301600A49802008600AB030
:100AE00070BD0000CA08000000600440806004403F
:100AF000FFFF0000006404406C07000034080000A1
:100B000004E400E000E100E0704770470D48012276
:100B100002600D48016802231943016041680B4BD4
:100B20001940416041680A4B194341600168042340
:100B300099430160C1680029FCD00168114301603C
:100B40007047000000A00A4040A00A4000FEE0FC00
:100B50002D00030070B40F25082909D206688C0007
:100B6000A540AE4306600568A240154305600AE053
:100B700046680C46083CA400A540AE434660456864
:100B8000A240154345600324240201228A40001933
:100B9000002B04D001681143016070BC70470168EC
:100BA0009143016070BC704710B5134C00230322C1
:100BB00005212046FFF7CEFF0222002311462046E2
:100BC000FFF7C8FF0023032204212046FFF7C2FFDE
:100BD0000023042201212046FFF7BCFF002302224C
:100BE00003212046FFF7B6FF0023042219462046C2
:100BF000FFF7B0FF10BD000000000A4030B4039CB6
:100C0000029B01252D04120749190A4359040A437E
:100C1000032149070A434265846530BC70470000E0
:100C200010B40122920793689414234393604B8875
:100C30000A785B1E9B01042423431A4302600A7B4B
:100C4000002A01D0012200E000228B7D002B01D080
:100C5000012300E000235B001A434B7B002B01D0F3
:100C6000012300E000239B001A43CB7D002B01D021
:100C7000012300E00023DB001A438B7B002B01D013
:100C8000012300E000231B011A430B7E002B01D03F
:100C9000012300E000235B011A43CB7B002B01D032
:100CA000012300E000239B011A434B7E002B01D05F
:100CB000012300E00023DB011A4342608A88521EB0
:100CC0000262CA8842620A8942634A89C2620A8A07
:100CD00082624A8A82638A8A0263294B3F22DA60EF
:100CE00042678A7E002A01D0012200E00022CB7EEA
:100CF000002B01D0012300E000235B001A430B7F8F
:100D0000002B01D0012300E000239B001A434B7FFE
:100D1000002B01D0012300E000231B011A438B7F2D
:100D2000002B01D0012300E00023DB001A43CB7F1E
:100D3000002B01D0012300E000235B011A4302676E
:100D40008A7E002A0ED1CA7E002A0BD10A7F002A91
:100D500008D14A7F002A05D18A7F002A02D1C97FA3
:100D6000002907D007494018074905D0802801D13C
:100D70001020086010BC70478020086010BC7047CD
:100D80000064044000A0FBBF00E100E04167704741
:100D900002490A6802430A60704700000064044088
:100DA00070B5294D0024A87D284A01280BD028467B
:100DB0001378418BC08C002B10D0012916D900F07C
:100DC0004FF86C8370BD288B6E2802D2401C28839C
:100DD0000CE02C83AC756C83147007E0052905D9F1
:100DE0000121117000F03CF86C8370BD288C18490B
:100DF000884201D2401C2884687D0028F5D0688C88
:100E0000144A811A904214D009DC1349401A0DD0BB
:100E10001249401810D0FF38FF3812D103E0FF39D3
:100E2000FF390ED10BE000F011FA0AE000F0FAF9F8
:100E300007E000F09BFA04E000F086FA01E000F021
:100E4000A9FA6C846C7570BDC8110020900F002049
:100E500030750000060900000C030000E2FDFFFFF2
:100E60007047000070B507213C48FFF737FC3C4B4A
:100E7000C2B29A7001210020002A03D0DA78002A39
:100E800046D04FE0DA78012A3CD11A78002A06D001
:100E90009C88241F0C2C02D8187259720CE0002A6E
:100EA00006D09A881A3A0C2A02D81972597203E0AD
:100EB00058725A8B521C5A835A7A002A14D09A7A42
:100EC0001C7A1F25AD1AAC40DD682C43DC60521C37
:100ED000D2B29A721F2A0AD91A7D002A01D11C6146
:100EE00019759872187002E018709872D8609A8814
:100EF000473A272A06D25A78012A03D15870197026
:100F00009872D860DA88521CDA809880D8700EE027
:100F1000DA88A13A272A05D25A78002A02D15970D4
:100F20009872D8609A88521C9A80D880D9701A7D9D
:100F3000002A0CD018751A8A1204120D5A849A8449
:100F4000DA849A7D002A03D0012A00D1188370BD6B
:100F5000597599751883588370BD000000080440C6
:100F6000C811002010B500F04DF900F093FD00F01D
:100F700081F910BD10B507480168002902D0016849
:100F8000491E016000F06AFB00F012FFFFF708FF46
:100F900010BD00008C0F002070B50125AD0728683A
:100FA0001A491B4CC00701D0216028E02868C00600
:100FB000400F07D0174A012808D0032816D004286C
:100FC00017D115E07D200002206012E01248006871
:100FD000800701D5216000E0226003212068FFF72F
:100FE000A9F8B4214843C008206002E0226000E074
:100FF00021602868800702D52068C0082060074962
:101000002068FFF797F8606070BD0000001BB70014
:10101000C01100200024F40040A00A4040420F000C
:1010200010B5012080078168421111438160224C74
:10103000E069400F052804D1E0692049C000C008DC
:1010400088605A20FFF72EFB002000F091FEFFF78A
:10105000A3FF1C481A490068FFF76CF8FFF722FB52
:10106000052119480904C16000BF00BF00BF00BFCF
:1010700000BF00BF00BF03210904C160134801691C
:1010800005221203914301611148416B09090901CD
:101090004163416BE2681207120F11434163416BD8
:1010A0000F22120591434163416BE2681203120F54
:1010B00012051143416310BD8000004000A00A40AA
:1010C00040420F00C011002000A0044000010A406F
:1010D00040A00A400149012048617047006804406F
:1010E00010B5024800F004F810BD0000406804404C
:1010F0000121416170472021020C01D010211046CE
:10110000020A01D008391046020901D0091F104611
:10111000820801D0891E1046420801D0881E7047FF
:10112000081A704702E008C8121F08C1002AFAD145
:1011300070477047002001E001C1121F002AFBD157
:101140007047000070B40278002A19D00222825E33
:10115000037F4A4384691A411219036A934203DBED
:10116000436A934200DC1346074ED21A857F7243CE
:10117000D213AD1A0422825E4A432A4111198161B9
:1011800070BC184670470000B77E00000146002082
:1011900040292ED010DC082927D007DC012904D0F3
:1011A000022920D0042900D10220704710291ED026
:1011B0002029FAD10520704701235B02CA1A9942FF
:1011C0001BD006DC802916D0FF390139F3D1082065
:1011D0007047FF3AFF3A023A11D001218902511AB1
:1011E000F6D10B2070470120704703207047042080
:1011F00070470620704707207047092070470A2073
:101200007047000000B583B00020009001230190DA
:101210001A4602210248FFF767FA03B000BD00003A
:101220000040004030B5074C0220A07001256570D9
:1012300005488178002900D1857000F023F82570D9
:1012400030BD0000301200200412002030B5074CE1
:101250000220A070002060700548012581780029D7
:1012600000D1857000F00EF8257030BD30120020DE
:101270000412002002480021017002218170704791
:101280003012002010B42948294942788978002476
:10129000002A22D1072920D20B007B441B79DB18BE
:1012A0009F440305080C10141800048115E0D62390
:1012B000038112E0FF23243303810EE0FF235C331C
:1012C00003810AE0FF239833038106E0FF23BA334A
:1012D000038102E0FF23D8330381012A0BD10729C0
:1012E00009D20B007B441B79DB189F4403060B0FCC
:1012F00013171B00048110BC7047D521C94301811D
:1013000010BC70470B49018110BC70470A4901812C
:1013100010BC70470949018110BC70470849018120
:1013200010BC70470749018110BC70473012002083
:1013300004120020DDFEFFFFA5FEFFFF69FEFFFF98
:1013400047FEFFFF29FEFFFF00B506498878012808
:1013500001D9401E8870FFF795FF034901200870EE
:1013600000BD0000041200203012002000B5074923
:101370008878401CC0B28870062801D90620887081
:10138000FFF780FF02490120087000BD0412002011
:1013900030120020014900200870704730120020F0
:1013A00010B4164C207800281BD0154B0C20185E6A
:1013B0000421615E02460A32914201DD9A8107E012
:1013C0000A460A32824202DA0A38988100E099819C
:1013D0000E20185E0621615E02460A32914202DD4D
:1013E000DA8110BC70470A460A32824203DA0A38B0
:1013F000D88110BC7047D98110BC704730120020D2
:101400002C110020024AD08702480180704700005A
:10141000940F0020D40F002010B425490022CC786E
:101420002448042C14D223007B441B79DB189F44EE
:1014300001111F2F8A82204A4260214A1F485062B0
:101440009062204B58625063906358630120C870CB
:1014500010BC7047446802239C434460888A401C47
:1014600080B288820528F3D98A82CB7010BC70477D
:10147000436801246402A3434360888A401C80B20D
:1014800088820528F2D98A820320C87010BC704770
:1014900043685B085B004360888A401C80B2888296
:1014A0000528F3D98A820420C87010BC7047000058
:1014B0002C11002000640440FFFF000032020000F5
:1014C0008060044000600440F8B53A4E3A4900207C
:1014D0003778085EFEF758FE0025384C002F17D0ED
:1014E000374A384BFEF778FE03D2E088401CE08094
:1014F00004E0E088002801D0401EE080E088322827
:1015000005D9314901200870E58025816581F8BD44
:101510002E4F3A78520732D50646294A294B009178
:10152000FEF75AFE08D22089401C208160890028DD
:1015300011D0401E60810EE03046254A254B0099AF
:10154000FEF736FE07D26089401C608120890028A2
:1015500001D0401E208120890A2806D93978FB2233
:1015600011403970E5802581658160890A28CED9CE
:10157000194901200870E58025816581F8BD104A70
:10158000104BFEF715FE03D26089401C608104E019
:101590006089002801D0401E608160890A28EDD949
:1015A00039780422114339703570E58025816581D1
:1015B000F8BD0000960F0020E40F00202C11002041
:1015C000DEDDDDDDDDCE5A40980F0020950F0020D6
:1015D0007FB1E4174B725540970F002010B41A49A1
:1015E000002248790123002811D0012818D00228B0
:1015F0000BD116480078002823D0086C401C0864E2
:10160000052802D9032048710A6410BC70471048AD
:10161000037010480C2404700A644B7110BC7047AE
:10162000086C401C08643228F8D90B480478002C58
:1016300003D103700A64022048713220086410BC90
:1016400070470A6410BC70472C1100209B0F0020CB
:10165000960F0020950F0020990F0020F8B53E4C02
:101660000220217858273D4E002506295CD20B0028
:101670007B441B79DB189F4402222B3044533849AA
:101680000978002950D0216A491C216200294BD0D9
:101690002562617800290CD0A5702070324931484C
:1016A00048602582E581A581304885828560E58294
:1016B0003AE0A078022837D000F05EF834E0E17814
:1016C000042902D0FFF7A8FE2EE0E57020702BE081
:1016D00000F0E0F90320207026E000F0E1F8207926
:1016E000042802D0062808D01EE07780652000017B
:1016F000B08005202070257116E00420207025712F
:1017000012E01B480570FFF769FF607903280BD1D1
:101710006571778065200001B0800520207003E0AE
:1017200000F0A6F8FFF7D0FE0D480078002803D09F
:101730000B4800F07FFAF8BD01200E4980030860D5
:101740000949084848602570A570E57025716571E4
:10175000074805702562F8BD2C110020B410002048
:1017600030120020FFFF00000064044074110020CC
:10177000940F002080E100E0F8B5324E0124B078EB
:10178000A503002838D0012835D17D22716AD20006
:101790002D482E4F91423ADA2D4C312500202D490B
:1017A000C043086128490420086139683846072287
:1017B00092039143396001680160FEF73CFF042108
:1017C0003846FEF727FF0028F9D0206900094007B6
:1017D0000FD06069B26A0005410C89180A11F262E3
:1017E000881AB062706A401C706220690009400764
:1017F000EFD16D1ED2D2F8BD0020F062B0627062EF
:10180000B47016491448486015480560F8BD15497C
:101810000161386828433860B08D00B27082B6210B
:10182000FEF79EFCC33000B2FA2800DDFA20000467
:101830000D49401C08610220B07074700B480560AF
:10184000F8BD00002C110020C0900440009004401E
:101850008091044040900440FFFF00000064044079
:1018600080E100E00400040080A00A4000E100E004
:1018700010B509488078012803D0022801D100F072
:10188000F7F9FFF78DFD054A0E210C20515E105E21
:10189000FFF7B8FD10BD0000301200202C11002011
:1018A000F8B56E4C6F49227900256D4F485F6E4E3A
:1018B000062A13D213007B441B79DB189F44020FC6
:1018C0000E180EB9694805702563A563E563656365
:1018D0003D7067480C21017001202071F8BDA06B9C
:1018E000401CA0633228F9D9A56303202071F8BDFC
:1018F0004010FEF749FC5F4A5F4BFEF76DFC23D2B8
:101900000020305EFEF740FC5A4A5B4BFEF764FC59
:101910001AD2606B002801D0401E6063206B002843
:1019200001D0401E2063E06B002801D0401EE06320
:10193000A06B401CA0630A28D9D9042020713D70F7
:101940004B490C200870F8BD46480021415E481004
:10195000FEF71AFC474A494BFEF72AFC44D2002006
:10196000305EFEF711FC434A444BFEF721FC3BD2AC
:1019700000210846FFF746FDE06B002801D0401E1D
:10198000E063A06B002801D0401EA063606B401C88
:101990006063002802D0656301203870314800215F
:1019A000415E4810FEF7F0FB354F364D3A462B4668
:1019B000FEF7FEFB12D20020305EFEF7E5FB3A4652
:1019C0002B46FEF7F5FB09D2206B401C2063FF215C
:1019D000F5318842B7D906202071F8BD206B002868
:1019E000FBD0401E2063F8BD606B002801D0401E74
:1019F0006063206B002801D0401E2063A06B00288C
:101A000001D0401EA063E06B401CE0636428EAD96B
:101A10006420E0631C480021415E002904DD1B496D
:101A20000020FFF7EFFCF8BD19490020FFF7EAFCA2
:101A3000F8BD401005280BDA0020305E052807DAD3
:101A4000206B401C20630A28F2D906202071F8BDC3
:101A5000206B0028FBD0401E2063F8BD2C11002015
:101A6000960F0020FE0F0020E40F0020940F0020AE
:101A7000950F00207FB1E4174B7245404B72354003
:101A8000CC5A1D133C280140FC0F002034F3FFFF0B
:101A9000CC0C0000F0B583B072B60120544980032D
:101AA000086055495348486000240846046053487C
:101AB00080685249800A8002886008468068400831
:101AC000400088600846816810204C4A814391603C
:101AD0004B4989688A0A4A4992028A6089684A0899
:101AE000474952008A608968814345488160454D75
:101AF0002868012109038843286029680120C0045F
:101B000001432960296881432960286801218904EB
:101B1000084328602868091108432860601EE860AF
:101B2000394E3470082070707487348737480480C9
:101B3000F48737498C828C6036498C828C60364FB2
:101B40007C623C62C481354884828460B470F470E5
:101B500034713348611E81813C64C4807C6404819B
:101B60007471B471F471BC65FC632E4981802E4997
:101B7000C1812E48582141806521090181808460FE
:101B8000848200210846FEF7F9FB1D48398841622E
:101B9000F988416379888162398981631749B888F6
:101BA0004862788948630094019400230122718A75
:101BB0001248FFF723F80094019400230122B18A10
:101BC0000F48FFF71BF8012019498003086062B62F
:101BD0000020C043E8602868012109030843286009
:101BE0000548446004490320086003B0F0BD0000CC
:101BF00080E100E0FFFF000000640440006004405A
:101C00008060044000900440940F0020D40F002016
:101C100004110020DC100020141000208C10002083
:101C2000F40F00208F02000032330000B4100020B7
:101C300000E100E0817800290AD000220123012977
:101C400007D0022904D10821415E00290BDD427032
:101C500070470621415E002901DD4270704700296E
:101C6000FCDA437070470029FCDA437070470000CB
:101C700070B5234CE069401CE0610A2824D30020A1
:101C8000E061204800211622415EA25E1E48FEF758
:101C90007BFBE0821D4D10210822615EAA5E4B1D78
:101CA0009A4201DD238206E0531D8B4202DA491F6E
:101CB000218200E0228216490978002908D068783C
:101CC000002802D01348E88070BD1348E88070BD3A
:101CD000218A081A000101B2FF20F530814201DD9E
:101CE000014603E00D48814200DA01460C48FFF747
:101CF00029FAE8800A48818A21838069606470BD7E
:101D00002C110020E20F0020CC0C0000301200202B
:101D1000960F002067E6FFFF991900000CFEFFFFF9
:101D200074110020002472B6FFF77AF9FEF7DCFD8B
:101D3000094900BF00BF00BF641C8C42F9D30020DA
:101D400000BF00BF00BF401C8842F9D3FEF738FD3A
:101D5000FFF708F962B6FEE7A086010003490120FB
:101D6000086081070A6802430A60704700A00A40C1
:101D700010B50446FFF7F2FFFEF7C8FE0120810709
:101D8000486008681C2290430860086804221043D9
:101D900008600222002C03D008681043086002E0AB
:101DA000086890430860086840084000086010BD5B
:101DB00070470000E41D0000000000208C0F0000B0
:101DC00024110000702D00008C0F00203C02000048
:101DD00026030000F02D0000C81100207804000048
:041DE00034110000BA
:020000042000DA
:1000000010B500F0ABFF0121084800F0ADFF10BDB6
:1000100010B5074800694006400F022801D300F0E0
:10002000C9FA00200349C043C86010BD0060044005
:100030008091044000900440F0B58BB00346F9482D
:10004000FA4D4843F84CDA034D43002911DB002BED
:1000500007DB954202DB0220E0831BE00120E08306
:1000600018E0904202DB0320E08313E00220E083EB
:1000700010E0002B07DB904202DB0520E08309E063
:100080000620E08306E0954202DB0420E08301E0E5
:100090000520E083DD03E54A0B465343AC46EA1AEC
:1000A000E34DD2126A43E34DD7144D43EE12E04DB7
:1000B000E08B6F436E430A97F7146F436546ED1864
:1000C0000997AE46EF12DA4D6F4365465B1BD84D7C
:1000D000DB126B439C46FB146B4308936346DB14B3
:1000E0006B43754607936B42D14DDB126B4306930E
:1000F000DB146B430593D04B5943C9126943CB14AE
:100100006B43CE4D0493072842D203007B441B79F6
:10011000DB189F44B403203E5C7A9800D714F01497
:100120003E18C3498E420BD931460A9800F022FF8F
:1001300007463146099800F01DFFE968491CE9604F
:10014000BB493A185118C903090C2980C91B698099
:10015000081AA88093E0FE146046C0143718B4490A
:100160008F420BD93946089800F004FF06463946FD
:10017000079800F0FFFEE968491CE960AC493218B5
:100180005118C903090C6980081A2880801BA880AF
:1001900075E0F6140698C0143718A5498F420BD99C
:1001A0003946099800F0E6FE06463946059800F003
:1001B000E1FEE968491CE9609D4932185118C903FC
:1001C000090C6980891BA980081A288057E06046BD
:1001D000C614C814371896498F420BD93946079868
:1001E00000F0C8FE06463946049800F0C3FEE968F0
:1001F000491CE9608E4932185118C903090CA980BD
:10020000081A6880801B288039E00698C614D0142C
:10021000371887498F420BD93946059800F0AAFE56
:10022000064639460A9800F0A5FEE968491CE960CF
:100230007F4932185118C903090CA980891B2980EC
:10024000081A68801BE0CE14F814371878498F42DA
:100250000BD93946049800F08DFE064639460898B9
:1002600000F088FEE968491CE960714932185118AC
:10027000C903090C2980081AA880801B6880288877
:100280006988884216D3AA88904213D36B4803909A
:100290006B480290914206D36A4A6B4D6B4B6C4E91
:1002A0000120E08332E0694A951D931E161D062049
:1002B000E0832BE0814216D3AA88914213D361498F
:1002C0000391891D0291904206D35C4A8D1E0B1F3B
:1002D0008E1C0220E08319E05C4A951D131F961CBA
:1002E0000320E08312E0594A0392921D0292884251
:1002F00006D30A3A951D931C9E1D0520E08305E058
:10030000504A951D931E161D0420E0831088514904
:10031000884202D94900091A00E0014689B20091D9
:100320000399434C0988641AA4B20194091A89B24A
:100330001C88001B80B2A446FF24B134A14214D211
:10034000A04212D9641AA4B22746FF37B137B84287
:1003500003D2241AFF34B134A4B2009FA74200D2C2
:10036000009C091989B2001B80B2FF24B134A0425D
:1003700014D2A14212D9241AA4B22746FF37B137AA
:10038000B94203D2641AFF34B134A4B2009FA74229
:1003900000D2009C091B89B2001980B2FF24B1343D
:1003A000A1420AD2641AA4B2A44500D26446091933
:1003B00089B267463C1BA4B2A446FF24B134A042D4
:1003C00008D2241AA4B2644502D2001980B201E016
:1003D000604480B2164C019FE41B029FA4463C80FF
:1003E000039F3F88E41B3F1B039C27806446641ADD
:1003F0002C801188671AC91B1180201A3080198837
:10040000401A081A18802888134AB43080B25082E3
:100410003188B43191820649884201D90846508218
:100420000BB0F0BD1AB6FFFFF40F0020E649000044
:10043000CA080000CC930000346CFFFF14100020A9
:100440001A100020161000201C1000201810002088
:100450001E10002065040000940F0020F0B4FD4C35
:1004600000250426455FA65F0227754300268E5FA0
:10047000E75F7E43AD1BED1315800022825E0220F4
:10048000205E42430020085E0421615E484310184C
:10049000C0131880F0BC7047F0B4EE4C0025042661
:1004A000455FA65F0227754300268E5FE75F7E43A8
:1004B000AD19ED13158000228A5E0421615E4A4366
:1004C0000021415E0220205E4143501AC013188073
:1004D000F0BC7047F0B585B0DF4D10242C5F2826A6
:1004E000AE5F22467243D21313B2DA4A53820493A8
:1004F0002A27EF5F7C43BC46E41327B29782BE46AF
:100500000E242C5F6643F61336B2D68203966746F6
:100510007C43E41324B21483029408240C5F0194F6
:10052000E31A1BB253839C460A240C5F774600945F
:10053000E41B24B294835B43DB13D38326466643D8
:10054000C64FF6133E80AF89FB1A9B1B1EB2C44BED
:10055000DE62002E01DD0026DE62BF4D0827EF5F60
:10056000DE6A7E431E6367467743FD139D617443D5
:10057000E713DF61B84C3026A65F039C361B741965
:100580005C63B54D3226AE5F029D751BED199D6310
:100590004443019BE4131B190B814543009CE81362
:1005A000201848810499591A51817146401A1081C6
:1005B00005B0F0BDF0B583B0AA4B58690005420CF8
:1005C000A9480188501AA44A00B2D0825B691B0571
:1005D0005B0C591A09B21183A04CE58B072D31D25F
:1005E0002B007B441B79DB189F442C030A11181F36
:1005F000260050834942D18340184042908321E035
:1006000090834942D1834018404250831AE090833E
:100610004942518308184042D08313E0D0834942B5
:1006200051830818404290830CE0D0834942918363
:1006300008184042508305E0508349429183401896
:100640004042D083844A1A21515E118487480B4668
:1006500043431C20105E864D45435B19C0031818A8
:10066000C01300B250845278520770D57A4F762367
:100670000C25DA5F655F26232426FB5EBE5F012D15
:1006800002D0032D31D076E0734D8F197F102F8566
:10069000C7187F106F85891B09B26182C01AA082BA
:1006A000744E304600F0D4FBE08218221421A25E82
:1006B000615E304600F0CCFB2083288CA884688CD7
:1006C000E8846D4E2C222821AA5E695E304600F037
:1006D000BFFB2885A8852E222A21AA5E695E3046A6
:1006E00000F0B6FB6885E88545E05B4D8F197F100B
:1006F0002F85C7187F106F85711A09B26182181A89
:10070000A0825C4E304600F0A3FBE0821822142148
:10071000A25E615E304600F09BFB2083288CA8849B
:10072000688CE884544E2C222821AA5E695E3046EB
:1007300000F08EFB2885A8852E222A21AA5E695EFC
:10074000304600F085FB6885E88514E0FFE7424D00
:1007500029856885494E2C22AA5E304600F078FB38
:100760002885A8852E222A21AA5E695E304600F0DF
:100770006FFB6885E885384E394F7078354D000736
:1007800020D50A203E49305EFFF7A4FE3D483E4991
:10079000009101900A21082004233C4A695E285EEA
:1007A00000F0C8FA0C21695E786A4118481200B25C
:1007B000E881091A7962002800DC40422882334827
:1007C0008068B862244800264078400700287ADA1A
:1007D0003869002802D0A089012802D0A089032806
:1007E00073D12B482B490091019016211820072323
:1007F000294A615E205E00F09DFA0622A25E786CB6
:100800008118481200B22081091A7964002800DC9E
:100810004042608120488168F9651421415E396653
:100820001E480078052802D0FE63BE654DE0F86BD7
:10083000401CF8631A49884247DDF963002A00DA50
:100840005242962A31D21749B86D884232DA401C9A
:10085000B8652FE0D40F0020940F0020F40F002083
:1008600014100020809104403E110020E649000051
:10087000CD130000323300006C500000876400008C
:1008800078100020E00F0020341000208C10002091
:10089000FA0F002054100020B41000202C1100206A
:1008A000204E0000C40900000DE0B86D002801DDF5
:1008B000401EB865B86D052802DDE448A08004E05C
:1008C000E348A08001E026816681E248C1780029E2
:1008D00002D0C670012181700179002902D0067111
:1008E00086706680DB48DC494078400769D5D94886
:1008F0008279002A4AD00C22A25E012A01D0032A62
:1009000025D11A22A25E1346143B0A2B0ED21222C4
:10091000A25E002A00DA52421423E35E002B00DAC2
:100920005B42D2183B6DD2183A6510E0323A0A2A7F
:100930000DD21222A25E002A00DA52421423E35E94
:10094000002B00DA5B42D2187B6DD2187A65BA6C44
:10095000002A18D086710122C271A6833B6D7A6D80
:100960009A420DD9BD4A3B6C9A183A64002A01DAC2
:1009700052183A643A6C8A4202D9B94BD2183A6496
:100980003A6C7A610AE0FA6C7A6107E08278002AB0
:1009900002D03A6C7A6101E03A6A7A614279002ABF
:1009A00011D0012282713A6CFA640022D243628330
:1009B0003E657E65BE64C671AA4AE281A683467121
:1009C00001E0386A7861A848A84A4069904203D299
:1009D000E8800120012115E0A04A904204D2101ABB
:1009E000E8800120811E0DE0A14A904205D2A14974
:1009F0004018E8800814014604E0081AE880002046
:100A0000C04301210623EB5E9B4F7B6009223A60C5
:100A1000FA68D203D20F002AFAD0FA6812B27B60C9
:100A200009233B60BB68DB03DB0F002BFAD0BB68FC
:100A30001BB2002801DD500001E0500040426880F8
:100A4000002901DD580001E058004042A8808B4B8E
:100A50008B4A8C498C48FFF71FFD7E4F8C49787874
:100A600042078A4851D5BA79002A04D07E873E874A
:100A700086608E6051E0B878002833D0A0890028C5
:100A80004BD179490869401C0861002845D00E61A6
:100A900080480078052812D0F88FA1884018B98EB8
:100AA000401A01B27A4800F009F938872888F98E8F
:100AB000401A01B2754800F001F978872DE0F88FEF
:100AC000A1884018B98E401A01B2714800F0F6F8BA
:100AD00038872888F98E401A01B26C4800F0EEF889
:100AE00078871AE0F88FA1884018B98E401A01B2B1
:100AF000674800F0E3F838872888F98E401A01B279
:100B0000624800F0DBF8788707E0624A1278052A2D
:100B100020D03E877E8786608E60797848073AD5F8
:100B20005C480078042826D0052827D04D48E0816D
:100B3000A089401C00B2A081032800DDA6810C2002
:100B4000205E00281DD001281ED002281ED00328B8
:100B500021D11FE0F88FB98E401A01B24C4800F045
:100B6000ADF838872888F98E401A01B2474800F05E
:100B7000A5F87887D1E73B48E081D9E73948E0819B
:100B8000D6E7E089208206E0268204E0E089404240
:100B9000208200E02682B879002820D0A089002891
:100BA0001DD1608B401C00B260833C2804DB66834F
:100BB0002D48826C521C82641A20205E0F2802DAB3
:100BC0002248A0830BE01E2802DA3348A08306E007
:100BD0002D2802DA3148A08301E03148A08348077C
:100BE00006D5388F218A4018A18B4018B88701E0BC
:100BF000388FB8872B4B2C4A2C492D48FFF72EFCF9
:100C000032213020795E385EFFF716FA1649294CFA
:100C100008886062C88860634888A0620889A06309
:100C200025488A88426249894163009601960023DB
:100C30000122798A00F0A4F900960196002301228E
:100C4000B98A204600F09CF903B0F0BDCC0C00003E
:100C50008F020000940F00201F9201000FC90000B6
:100C6000E16DFEFF323300001410002087640000A5
:100C7000972D0100F136FFFF00300040CA0F002021
:100C8000C80F0020BE0F0020BC0F0020DC10002089
:100C9000041100202C1100206606000034F3FFFF31
:100CA0009AF9FFFFC60F0020C40F0020CE0F0020CE
:100CB000D00F0020806004400060044070B4042322
:100CC000C35E827F4B43067802241C251341045FD8
:100CD000455FC268002E0FD04C432C4185685B19DC
:100CE0008360934201DD826003E00269934200DA8F
:100CF0008260826812190FE01426865F8E1B66439D
:100D00002E418360934201DD826003E002699342D9
:100D100000DA8260826892198182016A914201DA66
:100D20000A4603E0416A914200DD0A46826170BCD6
:100D300010467047FFB581B00B9D0A9C96461E4633
:100D40003C492068884203D281B20123012715E083
:100D500039490027FF43884203D2081A81B2012390
:100D60000CE03649884204D23549401881B23B46EE
:100D700004E03449081A81B23B460127324A5160E7
:100D8000092010609068C003C00F0028FAD0906856
:100D900000B2516009211160D168C903C90F00294F
:100DA000FAD0D16809B2002B01DD490001E0490009
:100DB000494209B2002F01DD400001E040004042FD
:100DC00000B2019A424302984843101AC013714678
:100DD0000978002906D001B27046FFF76FFF304155
:100DE000288007E001B27046FFF768FF298830418C
:100DF000401828800021695E206840182060114A50
:100E0000124908614A610120086048688007C00FE4
:100E10000028FAD188698869C86940004008C96912
:100E2000002900DA40422060002801DA80182060A2
:100E300005B0F0BD876400000FC90000972D0100C8
:100E4000F136FFFF1F9201000030004000380040E3
:100E5000891A4143C813801800B270478918C91A0B
:100E60004143C81300B27047364A904202D200B2E2
:100E7000012212E0344A904203D2101A00B2012239
:100E80000BE0324B0022D243984203D2304BC018C1
:100E900000B202E02F4B181A00B22F4B5860092005
:100EA0001860D868C003C00F0028FAD0D86800B214
:100EB000002A01DD400001E0400040420880704708
:100EC000F0B4204B984203D200B20123012415E074
:100ED0001D4D0024E443A84203D2281A00B2012386
:100EE0000CE01A4B984204D2194BC01800B22346AA
:100EF00004E0184B181A00B223460124164E706005
:100F000009273760F568ED03ED0F002DFAD0F5687D
:100F10002DB270603760B068C003C00F0028FAD0EF
:100F2000B06800B2002B01DD6B0001E06B005B429A
:100F30000B80002C01DD400001E0400040421080A9
:100F4000F0BC7047876400000FC90000972D0100B6
:100F5000F136FFFF1F9201000030004003B401484A
:100F6000019001BD650E000003B40148019001BD70
:100F70008D0D000003B40148019001BD3501000052
:0C0F800003B40148019001BDFD0B00000E
:100F8C000110120A0009D606052206CC4C77298BD3
:100F9C0012010441120112117202A0099899993997
:100FAC00686666C67A08141A010C0B165006289A45
:100FBC000C285CCC0C475C23CB6C853593FFFF1A5B
:100FCC000F0223CC4C0D1E34B3FFFF282365668B18
:100FDC009B99140140120174FB04CC1BFF1F108A57
:100FEC00E05C1A08C01B6546700A18B97013C1047E
:100FFC001B1101041A5104111B1BB73221000000F4
:0400000300000121D7
:00000001FF
