:020000040000FA
:10000000F00900204D0100005B0100005D010000CF
:1000100000000000000000000000000000000000E0
:100020000000000000000000000000005F01000070
:10003000000000000000000061010000112100002C
:100040006D210000792100007B2100007D2100004E
:100050006B2000006D200000AD1600007120000034
:10006000C91300002D1600009721000099210000FF
:10007000FD1200006D120000610F00009D0F0000D6
:10008000E516000049170000650100006501000049
:100090006F200000D52100007320000069200000BF
:1000A00069120000000000000000000000000000D5
:1000B0000000000000000000000000000000000040
:1000C00000F002F800F032F80CA030C8083824180C
:1000D0002D18A246671EAB4654465D46AC4201D180
:1000E00000F024F87E460F3E0FCCB6460126334280
:1000F00000D0FB1AA246AB4633431847183600001F
:10010000383600000023002400250026103A01D3D1
:1001100078C1FBD8520700D330C100D50B607047BF
:100120001FB5C046C0461FBD10B510BD00F092FD02
:100130001146FFF7F5FF02F027FC00F0AAFD03B41B
:10014000FFF7F2FF03BC00F0DDFD0000094880F37B
:1001500008880948804709480047FEE7FEE7FEE7B0
:10016000FEE7FEE7FEE7000005480649064A074BA2
:1001700070470000F009002031210000C10000009C
:10018000F0030020F0090020F0050020F005002019
:1001900001E004C0091F0429FBD28B0701D50280AE
:1001A000801CC90700D00270704700290BD0C3071C
:1001B00002D00270401C491E022904D3830702D5D5
:1001C0000280801C891EE3E70022EEE70022DFE7C1
:1001D000002203098B4273D3030A8B4258D3030BCB
:1001E0008B423CD3030C8B4221D312E003460B43DA
:1001F0007FD4002243088B4274D303098B425FD320
:10020000030A8B4244D3030B8B4228D3030C8B424B
:100210000DD3FF22090212BA030C8B4202D3121231
:10022000090265D0030B8B4219D300E0090AC30B06
:100230008B4201D3CB03C01A5241830B8B4201D3B3
:100240008B03C01A5241430B8B4201D34B03C01A9C
:100250005241030B8B4201D30B03C01A5241C30A14
:100260008B4201D3CB02C01A5241830A8B4201D385
:100270008B02C01A5241430A8B4201D34B02C01A6F
:100280005241030A8B4201D30B02C01A5241CDD214
:10029000C3098B4201D3CB01C01A524183098B425F
:1002A00001D38B01C01A524143098B4201D34B0148
:1002B000C01A524103098B4201D30B01C01A5241AB
:1002C000C3088B4201D3CB00C01A524183088B4232
:1002D00001D38B00C01A524143088B4201D34B001B
:1002E000C01A5241411A00D201465241104670478D
:1002F0005DE0CA0F00D04942031000D34042534092
:1003000000229C4603098B422DD3030A8B4212D351
:10031000FC22890112BA030A8B420CD38901921183
:100320008B4208D3890192118B4204D389013AD0C0
:10033000921100E08909C3098B4201D3CB01C01A95
:10034000524183098B4201D38B01C01A52414309A8
:100350008B4201D34B01C01A524103098B4201D396
:100360000B01C01A5241C3088B4201D3CB00C01A03
:10037000524183088B4201D38B00C01A5241D9D21B
:1003800043088B4201D34B00C01A5241411A00D29C
:100390000146634652415B10104601D34042002B98
:1003A00000D54942704763465B1000D3404201B517
:1003B0000020C046C04602BD70477047704700002D
:1003C000F0B51FB4FA4F0E091D09BC463E403D4032
:1003D0000C46B7435C408CB0002F7DD06746AF43DE
:1003E000FBD0002D79D0002EFCD0E20F3243521BFF
:1003F000FF24A40412190892420DCD02C7020E98E0
:100400001543420DD9021143C20260030543014363
:10041000080C0195150CAC4605040B46AB430A9538
:1004200065462D04AA430995E24D040A7D446419EA
:10043000803C257806466E4301247619E405A61B08
:100440007543ED0CAD1C490B69434919A401611AB0
:100450000E0CB6463604B143694376466E43090C2A
:10046000711889090591F90700D0A100049101993B
:100470007F08CC0727434C08059DE10B4D432D0C0D
:1004800029466646754302950D4645432E46029D14
:100490007D1BB44100950D465D4301942C0C2F0447
:1004A0000D465543AE462D0C3D43029503947546CB
:1004B000049C2D04641B049406D2029C039D641CBE
:1004C000002675410395029401AC70CC009F7D1B02
:1004D000B4410904009501E03BE15FE1079101941B
:1004E0000599A4086143090C0C464443650BE704D5
:1004F00064464C43A646640B3C4303950294744601
:10050000049DE4042C1B049406D2029C039D641CED
:10051000002675410395029401AC70CC009F7D1BB1
:10052000B44101940C465C430095650FE7000C460E
:100530005443A646640F3C43039502947446049DBD
:10054000E4002C1B049406D2029C039D641C00262C
:1005500075410395029401AC70CC009F7D1BB441A2
:10056000AE09AF06049DC900AD092F43049DA40642
:10057000AD060495079D344369180791059DE10B6D
:100580004D432D0C29466646754302950D4645435D
:100590002E46029D7D1BB44100950D465D4301949E
:1005A0002C0C2F040D465543AE462D0C3D430295B1
:1005B00003947546049C2D04641B049406D2029C8B
:1005C000039D641C002675410395029401AC70CC18
:1005D000009F7D1BB44101948C050694079C890AF9
:1005E000611800950791019C0599A4086143090CC5
:1005F0000D464543680BEF040D46644665436C0B9E
:100600003C43049FED047D1BAC4602D20025641CD4
:100610006841009E019D371B85410846584301955E
:100620000C46460FC5005443600F28436546E4005E
:100630002C1B02D20025401C6E41019D3F1AB54182
:100640002846BD09800628438446A009BF064E02FD
:100650000699A40676180743079D002068410A9969
:10066000079019430020099B00906046FF1913432F
:100670004041E20F64003A43A4460446D71A8C4135
:10068000A04203D90120009020463A46C70F941893
:1006900040416246D20F2243644664000494009CA9
:1006A000BE466400D71AA446044602978C4177469A
:1006B000002F01D1A04204D96046401C8446029A12
:1006C0002046C40FA64694184041049A0546D20F0E
:1006D000224364466400D31A8D417146002901D13A
:1006E000A84202D9641C28461A4610430122002859
:1006F00000D0164361020020079B044689195C4123
:100700000223002C02DB491813466441089DCE0ADF
:100710002D145D194B056705E10A2C050C19089984
:100720003E43C9076140002B08D0934006D3002206
:10073000761C5141002B01D1760876001E4A002C10
:1007400045DB2346134242D0A24340D0304611B08D
:10075000F0BD0E4607184E41184D7A42B5411AD3E6
:100760000E9A1D4696185D41144A7642AA4112D34C
:10077000012252054D00D5420AD15C00D4420AD074
:100780004B4002D592021143E1E749004908DEE7F8
:10079000E10FC9070AE000200949D8E706480142ED
:1007A00012D0084821460143C01241400020CEE744
:1007B0000000FF07643200000000F07F0000E0FF4F
:1007C0000000F87FFFFFFF7F0342E4D0E0E7012352
:1007D000089A9B069A4205DC032252078918C90F22
:1007E000C907B4E7052252078918074A1143D212F4
:1007F0005140ACE75940504010B54B404240594041
:100800005040FFF7DDFD10BDFFFFFF7F30B5034611
:10081000CA02400D1043154D154C0A1502D0204355
:10082000002A06DBAA1A002A12DDD040FF2A0BDCC0
:1008300030BD5205520D01D140004008AA1A07D41C
:10084000D0404042FF2A01DD002030BD0028FCDD01
:100850004A00002B01D0012000E000201018054ABA
:100860009042F1D8C817C043604030BD1E0400005C
:10087000000000800000E0FF1F22030C02D10F22C5
:10088000000402D0030E03D004E0002001467047AC
:10089000083A0002030F01D1121F0001830F01D19A
:1008A000921E8000002801DB521E400012055118E4
:1008B0004205C012411810467047C10FC90700D049
:1008C0004042012292071143D6E701218907D3E76D
:1008D000F0B5904C0D092646AC46AE430D465D4042
:1008E00087B0002E7ED01E092746B743FAD0674650
:1008F0002740ED0F3D43264075D024012142FBD017
:100900007419FF25AD04641B0494CC02D9020123A1
:100910001B05C90A1943E40A1C430F012401030FF4
:10092000110F1C430F430501A10B88032D0916016C
:100930008443A80B82039543BB0B9A039743360964
:10094000BC46B20B9703BE430746574303972F4657
:1009500077430296BE46029F4619D71906967E43F4
:100960000597039FF71B7646BE1B77463F0100970E
:100970000196039FB60BF619B646019E009FB6047A
:10098000BF1902D37646761CB64676467600002F0F
:1009900001D001273E4367467D43AE46029F254670
:1009A0007D4300956D00AE1975466D00AF19654623
:1009B0005D19069E03956E437546751BAE460D196F
:1009C000059E02956E43009D5843761B75462D1A71
:1009D0004A439646B21A00920195FA0606D07D095E
:1009E000012201E076E072E0154300E07D09020A91
:1009F0000006002745197A417646300A36067619F0
:100A00005041019A950D9202961945410098820D28
:100A1000800280196A41594363465C43039D029BEF
:100A20006B435B1A1E1BB30EB601B6187B410A0B53
:100A3000090589195A41230A240624184B418B427F
:100A400000D2521C01204002824203D3152102260B
:100A5000F64302E014210326F6432020451AAA405B
:100A60001F46AF40CB402046C840049913430914A9
:100A7000711809055A1804993843C9075140AC4008
:100A800009D001239C4006D30023401C5941002C6F
:100A900001D140084000204B002A03DB1A4201D05C
:100AA0008B4312D1012204989206904207DB052065
:100AB0004007091819480143C012414004E00320CF
:100AC00040070818C10FC907002007B0F0BD00207B
:100AD000E907FAE706180C464C4111487642A04156
:100AE00014D394181A465A410D48644290410DD3CC
:100AF000012049004005814208D35900814205D3B5
:100B0000E90F054AC90700201143DEE70020054927
:100B1000DBE700000000FF070000F07FFFFFFF7F22
:100B20000000E0FF0000F87F0121C9050123411802
:100B300042001B06D3185B0E0BD0C1100722D20651
:100B40008918400752428A1802D5092212078918CB
:100B50007047090208D50146002A03D0C10FC90712
:100B60000020704710467047420202D0002003491F
:100B70007047072109050143F4E700000000F87FF2
:100B8000F8B5224C4E00069DA6420AD8A64201D1D5
:100B9000002806D15E00A64203D8A6420AD1002A48
:100BA00008D00D24240425422CD02946002000F032
:100BB0002FF8F8BD0C461C430CD4994202D0EFF339
:100BC0000080F8BD904202D0EFF30080F8BDEFF353
:100BD0000080F8BD09242407E5008B4206D0EFF31E
:100BE0000080A043591A06D2284304E0101A05D306
:100BF000EFF30080A04380F30088F8BDEFF300809E
:100C0000A043F1E7009500F01BF8F8BD0000E0FFFD
:100C1000CA0210D54A03520F04D0C803C0430121B1
:100C200088407047054AEFF300810801000910432E
:100C300080F30088704700207047000000000030FB
:100C400010B500200249029A00F029F810BD0000FA
:100C50000000F87F754600F051F8AE460500694681
:100C60005346C008C000854618B020B5FFF77CFA8F
:100C700060BC00274908B6460026C0C5C0C5C0C52F
:100C8000C0C5C0C5C0C5C0C5C0C5403D49008D4632
:100C900070470446C046C0462046FFF750FA10B5DC
:100CA0000C461107090F092904D00A290AD008297E
:100CB0000CD104E011460820FFF7AAFF06E0510618
:100CC00006D501E0510601D50120C007214610BD1F
:100CD000D10607D501010909CC084907000E000615
:100CE000044309E0410F20024907000A0143200E96
:100CF00000061D22D14101430846E7E7004870473E
:100D00008C03002001491820ABBEFEE7260002003C
:100D1000704770B58C180578401C6B075B0F01D1CC
:100D20000378401C2A1106D10278401C03E00678A3
:100D3000401C0E70491C5B1EF9D12B0705D4002303
:100D4000521E0DD40B70491CFAE70378401CCB1AD5
:100D5000921C03E01D785B1C0D70491C521EF9D5D6
:100D6000A142D8D3002070BD10B50C490968491EB6
:100D70004A1E9141CA02012149040B68084C2340D4
:100D80009A180A60592212064A604860C86895227B
:100D900012064A600A6822400A6010BDA0000040A6
:100DA000FFF7FFFF0021816181828160704730B5CC
:100DB00002461478002C1DD00224145F4C43157F8A
:100DC00023462B410424145F4C43957F2C419568A6
:100DD00064199460D5689468AC4202DDD46894606C
:100DE00005E015699468AC4201DA1469946094686E
:100DF000E0181DE01424145F0C1B0225555F6C43A2
:100E0000157F23462B410424145F4C43957F2C41CE
:100E10009460D5689468AC4202DDD468946005E0C3
:100E200015699468AC4201DA146994609468E0181A
:100E30009182146A844201DA106A03E0546A84429F
:100E400000DD506A906130BD30B502469468641888
:100E50000225555F6C43157F2C4123460424145F03
:100E60004C43957F2C41956864199460D5689468CB
:100E7000AC4202DDD468946005E015699468AC4228
:100E800001DA146994609468E0189182146A8442CB
:100E900001DA106A03E0546A844200DD506A90610E
:100EA00030BD70B502460B460224145F9569ED18FB
:100EB0006C43157F2C412146146A8C4201DA106A7A
:100EC00005E0546A8C4201DD506A00E008460424C3
:100ED000145F5C43957F2C410D1A044E7543ED134E
:100EE000641B95696419946170BD0000B77E0000B1
:100EF000FFB583B015460C9E0D9C30881749401AEB
:100F000000B20090009988B200F038FA029000997F
:100F100088B200F0F5F90190019903984143029AD3
:100F200004985043081AC7133946069801410F46E2
:100F30002878002805D039B22846FFF738FF20600E
:100F400006E039B22846FFF732FF216840182060DA
:100F5000306821684018306007B0F0BDFF7F0000A6
:100F600010B501210C4800F0AAF8002804D0012196
:100F7000094800F04EF80EE00221074800F09FF803
:100F8000002804D00221044800F043F803E07F2148
:100F9000014800F03EF810BD0004014010B50121E9
:100FA0000C4800F08CF8002804D00121094800F01A
:100FB00030F80EE00221074800F081F8002804D044
:100FC0000221044800F025F803E07F21014800F0E9
:100FD00020F810BD00050140FFB5012B04D1456E7E
:100FE0001E468E40354345668A109207920F890748
:100FF000890F8900960005465035AC590F258D4064
:10100000AC43029D8D402543960007465037BD51A5
:10101000FFBD9422115070470246002902D110688A
:1010200000B27047012902D1506800B2F9E70229E5
:1010300002D1906800B2F4E7032902D1D06800B26F
:10104000EFE7042902D1106900B2EAE7052902D1CD
:10105000506900B2E5E7062902D1906900B2E0E7E5
:10106000072902D1D06900B2DBE7082902D1106A52
:1010700000B2D6E7092902D1506A00B2D1E70A29A5
:1010800002D1906A00B2CCE70B2902D1D06A00B23B
:10109000C7E70C2902D1106B00B2C2E70D2902D1BB
:1010A000506B00B2BDE70E2902D1906B00B2B8E7D9
:1010B0000F2902D1D06B00B2B3E70020B1E710B521
:1010C0000246002094239B580B409024A4582342AE
:1010D00001D0012000E0002010BD000070B50546E1
:1010E0000C460121084600F0C5FF208861880843AE
:1010F00090214851E08A0002A18A09010843618ACF
:1011000008432866208AA867A0880003E18889022E
:101110000843218909020843618909010843A1891B
:10112000C9000843E18908436867618BC4204151C5
:10113000A18BC8204151E18BCC204151A12040011D
:10114000FFF712FE154908601548FFF70DFE134919
:1011500048601348001DFFF707FE104988601048DB
:101160000830FFF701FE0D49C8600D480C30FFF74D
:10117000FBFD0C4908600A481030FFF7F5FD0949EE
:10118000486007481430FFF7EFFD064988600448BF
:101190001830FFF7E9FD0349C86070BD80040140C5
:1011A00024140000800501400021018041808180DD
:1011B000C180018141818181C181018201214182FE
:1011C0008182C182002101837047000000B589B08F
:1011D00001A8FFF7E9FF002168468180C1800181F5
:1011E000418181810121C18100210182418201214E
:1011F0008182C182018341830021C1830184012155
:10120000418401A91648FFF769FF01A8FFF7CCFF49
:10121000002168468180C180018141818181012155
:10122000C18100210182418201218182C182018329
:1012300041830021C18301840121418401A909481E
:10124000FFF74CFF0023072219460548FFF7C4FEAD
:101250000023082219460348FFF7BEFE09B000BD6F
:101260000004014000050140704700001CB5032048
:1012700015494860084640680221084222D00021F2
:10128000009101910FE0104840690121C903084213
:1012900004D068460078401CC1B2009168460079CD
:1012A000401CC1B20191684600790528EBDB684615
:1012B0000078032805DD002000F0AAFE3020034955
:1012C000486100BF1CBD000000020140800C0140CD
:1012D00000B5074807498862C813C1034862642003
:1012E00000F004FF0448034908600020886200BD44
:1012F000837A000080000040FF010000704700007A
:1013000070B5044600BF0C480088401C0A4908809C
:10131000084606880120400400F0DCFE062007494C
:10132000086008464460406905B203480088864268
:10133000E9D1284670BD0000460000200030014081
:10134000F8B504460D4600BF0A480088401C09490C
:101350000880084606880120400400F0BBFE0648CD
:1013600004624562876A034800888642ECD13846A9
:10137000F8BD0000460000200030014070B5044672
:1013800000BF0C480088401C0A49088008460688AF
:101390000120400400F09EFE062007490860084630
:1013A0004460006905B2034800888642E9D12846B6
:1013B00070BD0000460000200030014010B5012142
:1013C000480400F06FFE10BD704770B504460D462E
:1013D0000121C80200F066FE6868002804D00128D8
:1013E0000BD0022812D112E060682968884360603F
:1013F000206829680843206012E060682968084373
:101400006060206829688843206009E000BF606848
:10141000296888436060206829688843206000BF8D
:1014200000BFA868002804D020692968084320610B
:1014300003E02069296888432061E868002804D017
:10144000A06929680843A06103E0A069296888436E
:10145000A0612869002804D0E06929680843E06198
:1014600003E0E06929688843E06170BD30B50C464F
:10147000230000F0B0FE10090F171E252B333A4150
:10148000474F565D636B7279016A394D29408B185D
:1014900003626AE0016A364DE13D294013015B18A1
:1014A000036262E0016A334D294013025B18036254
:1014B0005BE0036A1905090D13035B18036254E02E
:1014C000416A2B4D29408B1843624EE0416A284DFA
:1014D000E13D294013015B18436246E0416A254D16
:1014E000294013025B1843623FE0436A1905090D66
:1014F00013035B18436238E0816A1D4D29408B1845
:10150000836232E0816A1A4DE13D294013015B1884
:1015100083622AE0816A174D294013025B188362B7
:1015200023E0836A1905090D13035B1883621CE02D
:10153000C16A0F4D29408B18C36216E0C16A0C4D79
:10154000E13D294013015B18C3620EE0C16A094DF9
:10155000294013025B18C36207E0C36A1905090D2D
:1015600013035B18C36200E000BF00BF30BD000082
:10157000F0FF0000FFF000000246002093680B42DD
:1015800001D0012000E000207047416370470163F3
:1015900070470021016041608160C1600161704756
:1015A00000B585B06846FFF7F4FF032204211E480A
:1015B000FFF75CFF032205211B48FFF757FF0322BB
:1015C00006211948FFF752FF032207211648FFF7AB
:1015D0004DFF032208211448FFF748FF0322092189
:1015E0001148FFF743FF012001903F2000010090C8
:1015F00069460D48FFF7E9FE002203210A484038FA
:10160000FFF734FF0022042107484038FFF72EFF80
:101610000020019018200090694603484038FFF7E9
:10162000D4FE05B000BD0000400D014002484068F6
:1016300001494860704700000003014010B572B6D0
:1016400016481749886200F033F80120400400680A
:101650000121C904084389100860FFF7B7FD00F0B5
:10166000A1FBFFF79DFFFFF7A9FE0E4800F064FD08
:10167000642000F03BFD0021102000F08DFC0E20C6
:1016800000F080FC0F2000F07DFC10200121814043
:10169000054A116000BF62B610BD0000837A0000E9
:1016A000800000400077010000E100E0704700008A
:1016B0000F20800201494860704700000017014078
:1016C00010B50346881A5843C013841820B210BDC1
:1016D00030B51468E41323B2CC1A444315682C19AE
:1016E000146030BD10B50221002000F041F8002840
:1016F00012D040211148FFF74AFF00F00FFF1048B9
:101700000088401C0E4908800221002000F01EF8CD
:1017100040210A48FFF739FF01210905002000F0A8
:1017200027F8002809D007480088401C0549088090
:1017300001210905002000F009F810BD000D01404D
:101740000A000020000000207047000001229203E0
:10175000914207D8002802D1044A516005E0034AAB
:10176000D16002E0CA0B014B5A617047800C014006
:1017700010B50246002001239B03994217D8002A86
:101780000AD0114B5B680B400F4C2468234201D0F8
:10179000012017E0002015E00B4BDB680B400A4CE2
:1017A000A468234201D001200CE000200AE0064B8F
:1017B0005B69CC0B2340044C2469234201D00120F7
:1017C00000E0002010BD0000800C014010B5044670
:1017D0000121880200F066FCFD48FE4908602620D1
:1017E000005D2521095D890008432421095DC900A8
:1017F00008432321095D090108432221095D4901AC
:101800000843E17F89010843A17FC90108432121E1
:10181000095D090208432021095D49020843617FEF
:1018200089020843217FC9020843EA498039C86315
:10183000A08EE849C0390863E08E4863208F886332
:10184000608FC8632088E3498039086060884860F9
:101850007220005D7321095D090108437421095D4F
:10186000490108437521095D890108437621095D15
:10187000090208437721095D090308437821095DBE
:10188000490308437921095D89030843D149803917
:101890004863A08F0862E08F48624020005B886246
:1018A0004220005BC862CC48CA4940394861A22046
:1018B000005DA321095D49000843A821095D890055
:1018C0000843A921095DC9000843AA21095D09014E
:1018D0000843AB21095D49010843AC21095D890139
:1018E0000843AD21095DC9010843A421095D8902AE
:1018F0000843A521095DC9020843A621095D090322
:101900000843A721095D49030843AE21095D890306
:101910000843B04940390860AF20005DB021095D3F
:1019200049000843B521095D89000843B621095DD6
:10193000C9000843B721095D09010843B821095DC1
:1019400049010843B921095D89010843BA21095DAC
:10195000C9010843B121095D89020843B221095D2B
:10196000C9020843B321095D09030843B421095D95
:1019700049030843BB21095D890308439549403960
:101980008860BC20005D0001BD21095D490108435C
:10199000BE21095D89010843BF21095DC9010843D2
:1019A000C121095D09020843C221095D49020843BA
:1019B000884940390861884886498039086144204F
:1019C000005B88614620005BC861C020005D086341
:1019D000D820005DD721095D49000843D621095D63
:1019E00089000843D521095DC9000843D421095D58
:1019F00009010843D321095D49010843D221095D4A
:101A000089010843D121095DC9010843D021095D3D
:101A100009020843CF21095D49020843CE21095D2F
:101A200089020843CD21095DC9020843CC21095D23
:101A300009030843CB21095D49030843CA21095D15
:101A400089030843C921095DC90308436149403935
:101A50008861C320005DC421095D49000843C52198
:101A6000095D89000843C621095DC9000843C721F3
:101A7000095D09010843C821095D49010843554929
:101A80004039C8614820005D4921095D490008438B
:101A90006121095D890008436021095DC90008438F
:101AA0005521095D090108435421095D4901084395
:101AB0006C21095D89010843218DC90108434A2130
:101AC000095D090208434B21095D4902084363216E
:101AD000095D890208436221095DC9020843572153
:101AE000095D090308435621095D490308436D2137
:101AF000095D89030843618DC903084335494039AD
:101B000008624C20005D4D21095D490008436521B4
:101B1000095D890008436421095DC9000843592112
:101B2000095D090108435821095D490108436E21F7
:101B3000095D89010843A18DC90108434E21095D52
:101B4000090208434F21095D490208436721095DE5
:101B5000890208436621095DC90208435B21095DCA
:101B6000090308435A21095D490308436F21095DB0
:101B700089030843E18DC903084316494039486287
:101B80005020005D5121095D490008436921095D2C
:101B9000890008436821095DC90008435D21095D8A
:101BA000090108435C21095D490108437021095D71
:101BB00089010843218EC90108435221095D0902A8
:101BC00008435321095D490208436B21095D05E083
:101BD000ADDE0000C00C0140FFFF00008902084399
:101BE0006A21095DC90208435F21095D09030843B1
:101BF0005E21095D490308437121095D890308439A
:101C0000618EC903084361498862A0885F498039B1
:101C10000860E0884860208988606089C860A08981
:101C20000861E0894861208A8861608AC861A08A69
:101C30000862E08A4862208B8862608BC8627F20DD
:101C4000005D80008021095DC90008437A21095D9B
:101C5000090108437B21095D490108438121095D90
:101C6000C90108437D21095D090208437E21095D00
:101C7000890208437C21095DC9030843434908637D
:101C80008720005D80008821095DC900084382210A
:101C9000095D090108438321095D49010843892140
:101CA000095DC90108438521095D090208438621B0
:101CB000095D890208438421095DC903084333494A
:101CC00048638B20005D8A21095D490008438D210E
:101CD000095D890008438C21095DC90008438F21F3
:101CE000095D090108438E21095D490108439121DD
:101CF000095D890108439021095DC90108439321C9
:101D0000095D090208439221095D490208439521B2
:101D1000095D890208439421095DC90208431B49F2
:101D200088639620005D9721095D4900084398214A
:101D3000095D890008439921095DC90008439A217A
:101D4000095D090108439B21095D490108439C2164
:101D5000095D890108439D21095DC90108439E2150
:101D6000095D090208439F21095D49020843A0213A
:101D7000095D89020843A121095DC902084303499D
:101D8000C863034801494031086010BD800C014020
:101D9000FECA000010B50446E4212046FEF716FAFC
:101DA00010BD000000B5B9B06846FFF7F3FF012190
:101DB00008A84171002181710C2130A80170002018
:101DC000C043389001216846C1776A4901806A4959
:101DD00081806A49C18068490181684941816649B9
:101DE00081816649C18100210185418581857321F9
:101DF0008187C1870021417708A8417010A88180A0
:101E000018A881740121C17400210175417528A8A9
:101E100081700121C170C17610A801720021417248
:101E2000012181720021C1720121017300214173DE
:101E300018A801734173817320A881720121C172B6
:101E40000021017301214173002181730121C173BC
:101E50008175C175017641768176C176002118A819
:101E6000817628A80177012118A841770021C17740
:101E7000C17628A8417718A8817720A80170417001
:101E800018A801770121684681773A4941803A498B
:101E900001823A494182384981823849C1823649B2
:101EA0000183364941830021C18501864186732122
:101EB00010A80180418000216846017708A80170C0
:101EC00010A8C18018A881750121C1750021017673
:101ED000417628A8C17301210174C176284968465A
:101EE00081862449491EC186254901872149491E09
:101EF0004187012110A881730021C1730121017460
:101F000000214174012181740021C17418A8C1739A
:101F10000174417420A8017401214174002181746D
:101F20000121C174002101750121417501774177BB
:101F30008177C17728A801704170002120A88170A5
:101F400028A88177012120A841710021C171C170A9
:101F500028A8C177012120A8817100210172417256
:101F6000017108A8C170012181706846FFF72EFC3D
:101F700039B000BD85080000DFFD0000210200002F
:101F800085F70000C206D20E01219140014A11607E
:101F90007047000080E100E010B5002819DA1A4A05
:101FA00003071B0F083B9B089B00D2588307DC0EDE
:101FB000FF23A3409A438B071B0E8407E40EA34024
:101FC0001A43114B0407240F083CA408A4001A511B
:101FD00018E00E4A03231B02D21883089B00D25834
:101FE0008307DC0EFF23A3409A438B071B0E840755
:101FF000E40EA3401A43054B032424021B19840852
:10200000A4001A5110BD00001CED00E000E100E04A
:102010001349144A116000280FD112494039096B45
:10202000402291430F4A403A11631146496B4022C6
:1020300091430C4A403A51630EE00A494039096B1A
:1020400040221143074A403A11631146496B40222E
:102050001143044A403A51630021024A116070471B
:10206000ADDE0000C00C01407047704770477047FC
:1020700070477047094A0A4B9A62002905D0DA0571
:10208000526A0243DB055A6206E001229207526A55
:10209000824301239B075A6270470000837A000045
:1020A00080000040094A0A4B9A62012904D11A466D
:1020B000D2690243DA6104E0054AD2698243044BE3
:1020C000DA610022024B9A6270470000837A0000B6
:1020D000800000400349044A916211464862012190
:1020E00091627047837A00008000004008B50021AB
:1020F000009103E000BF0099491C009100998142C2
:10210000F8D308BD10B500F02DF900F077F810BD38
:1021100010B506480068002804D004480068401E36
:102120000249086001F07EFA10BD000004000020A2
:1021300000B5FFF7CDF800BD10B50446601E094993
:10214000884201D9012010BD601E07494861032162
:10215000081FFFF721FF002003498861072008615D
:102160000020F0E7FFFFFF0000E000E0042001494D
:10217000086270470006014070477047704770B5AD
:1021800004460D46A0B2FFF7F9F86880A0B2FFF749
:10219000B7F8288070BD70477047000070B50C4DCF
:1021A00000242C5F44432E460225755F4D43641B7B
:1021B000E41324B21480354602242C5F44430025E6
:1021C000755F4D436419E41324B21C8070BD000098
:1021D000B0010020704730B47446641E2578641C3A
:1021E000AB4204D3635D5B00E31830BC18471D4667
:1021F000F8E710B500F056FC10BD000000B585B042
:1022000000200E4908700E4908700E49087000F051
:1022100021F8002001900120C002009069460A4880
:10222000FFF7D3F80121C9020748FFF7A5F940B22B
:10223000064908700649087005B000BD420000203C
:102240004000002041000020800D0140440000209B
:102250004300002010B51148114908800F4825306F
:10226000488010484860104888600A460221515E44
:102270000020105E00F036FA0949486800F072FA52
:102280000749886800F060FA05220849880000F0D4
:102290003BFA7D20400100F02FFA10BD123B0000F8
:1022A000E001002058740000E8A000003359360710
:1022B00010B501462E224A43D313134C0022A25ECE
:1022C0002E246243D2139B1A104C0022A25E104CA3
:1022D000624392139B180F4C0022A25E0C4C1134E7
:1022E0006243D2139A1A10B20B4B00229A5E064B2D
:1022F0001A80094A1180054B00229A5E054B1A800C
:10230000024A108010BD0000D2010020CC01002044
:10231000907F0000CE010020D00100200020044961
:1023200008800449088004490880044908807047EF
:10233000D2010020D0010020CE010020CC010020DD
:1023400000200449088004490880044908800449A1
:1023500008807047DA010020D8010020D601002053
:10236000D4010020F0B58BB006A8FFF712F906A83B
:10237000FFF70FF9012007904020069006A9534867
:10238000FFF723F80020524908704860514908704F
:102390008860C860486050485049C8600846C068B6
:1023A000400008614E484F49C860C86800F0E0FA34
:1023B0004C4988607F20C00508604B4848604868E9
:1023C000FEF77BFA0191009046490868FEF7ACFBE6
:1023D00004460022454BFEF77BFA0646019B009A15
:1023E000FEF776FA0022424B03910290FDF7E8FFD8
:1023F00005910490FEF70AFA3A4908620846806897
:10240000C86108468068496840183649086108462E
:1024100080684968401A33494861012008760020E5
:10242000886400212F48403001732038017100205A
:1024300030490870012008772F4848602F480881EC
:102440002F480882084600894881084641682D487F
:10245000FDF7CCFE0446C00F001940102549486125
:102460000020886100211F48403041730020264928
:1024700008702649087026490870FFF74FFF00F0E2
:10248000DBFAFFF75DFF00F0E9FA224A0021084677
:1024900000F078F91F48C088404280B21E490860A9
:1024A0001C48C08848601B480089404280B2886050
:1024B00018480089C86017484089404280B20861C6
:1024C0001448408948610BB0F0BD0000000D014088
:1024D000600300206C0300205874000050020020AC
:1024E000E8A0000064020020AA2A000000001040BA
:1024F000007CD540B40200202602000032330000E8
:1025000088080000F05500008A01002088010020A2
:1025100089010020EC010020000C01401CB50021C5
:102520005E48FEF779FD5E490988401A00B25D49B0
:10253000088000215C48FEF76FFD5C490988401A5D
:1025400000B25849488008460C30011F554A009196
:1025500001900021515E0220105E0023544AFEF7D4
:10256000C7FC50480079002807D101204D49087167
:10257000886800F00FFA4B4988604A48806840003C
:1025800048490861084600694A490969401A4549AD
:102590000861086900F0FEF94249C86246480078BF
:1025A00046490978884207D0444800784449087071
:1025B000414800784149087042480078002803D11A
:1025C00041480078002807D009203C4908700020C5
:1025D0003E49488108812FE0384800780300FFF722
:1025E000FAFD09060F1512181B1E212428000020D1
:1025F0003649488108812B480069354908601BE04D
:1026000000F03EFA18E000F017FB15E000F0CAFBFE
:1026100012E000F031FC0FE000F0F2FD0CE000F001
:10262000ADFE09E000F042FE06E00020FFF7F0FCFE
:102630001CBD00BF00BF00BF264925480068FFF74A
:102640009EFD224A0A21515E0820105E224B9A1EEE
:10265000FFF7A4FD204A0A3A0A21515E0820105EC5
:102660001E4A00F08FF81D48C088404280B21C49C5
:1026700008601A48C088486018480089404280B203
:10268000886016480089C86014484089404280B27A
:10269000086112484089486100BFC9E70005014050
:1026A000A00100201802002000040140A201002027
:1026B00048000020500200208A01002088010020EC
:1026C000890100206C03002060030020000200202C
:1026D000AC010020B001002016020020EC01002017
:1026E000000C0140024A1080024A1180704700002D
:1026F000A0010020A20100200146024841800020E4
:10270000704700006003002010B5034604480361D1
:102710004161AB205043024CE061002010BD00003D
:102720006C03002070B505460C460120FFF770FCD5
:10273000012003490870034805804460002070BDF3
:102740008A010020B801002010B504460448C46086
:102750000146C86800F00CF90149886010BD00000E
:102760006402002010B50446204600F013F9044925
:10277000C860C86800F0FCF80149086110BD00009D
:102780005002002070B5002918DB00280ADB754BC9
:102790004B43C403A34202DB0223938026E00123C0
:1027A000938023E06F4B5B424B43C403A34202DBA5
:1027B000032393801AE00223938017E000280BDBA9
:1027C000684B5B424B43C403A34202DB0523938067
:1027D0000CE00623938009E0624B4B43C403A34201
:1027E00002DB0423938001E0052393809488230077
:1027F000FFF7F1FC07AF051F3D597593AF00C60306
:10280000584D4D43751BED12574E7543EB14574D04
:102810004D43ED127543EC1435465D192D19ED034A
:102820002D0CD580D588ED1A158115892D1B558164
:102830008FE0C6034B4D4D437519ED124A4E75435B
:10284000EB14C5036E42474D4D437519ED12464ECC
:102850007543EC1435465D192D19ED032D0C1581CA
:1028600015892D1BD580D588ED1A558171E03F4D16
:102870004D43ED123C4E7543EB14C5036E42394D8A
:102880004D43751BED12384E7543EC1435465D19FA
:102890002D19ED032D0C15811589ED1A55815589DA
:1028A0002D1BD58055E0C5036E422E4D4D43751945
:1028B000ED122D4E7543EB142C4D6D424D43ED1230
:1028C0007543EC1435465D192D19ED032D0C55811A
:1028D00055892D1B15811589ED1AD58039E0C50361
:1028E0006E42204D4D43751BED121F4E7543EB1488
:1028F000C6031C4D4D43751BED121B4E7543EC1466
:1029000035465D192D19ED032D0C55815589ED1AAC
:10291000D580D5882D1B15811BE0144D6D424D438C
:10292000ED12114E7543EB14C6030E4D4D43751950
:10293000ED120D4E7543EC1435465D192D19ED035E
:102940002D0CD580D5882D1B55815589ED1A158103
:1029500000BF00BFD38893811389D3815389138229
:1029600070BD0000E649000085080000CC9300001F
:1029700010B504466100034A1269881A00F00AF88B
:1029800010BD000050020020FEF758FEFFF7BAFB12
:1029900000BFFEE770B5054607492846FEF7D0FCA4
:1029A0000646F003801B40002C1A002C01DA024876
:1029B0002418204670BD0000FEFF000010B501463F
:1029C000174A4A43D313174C0022A25E164C6243A7
:1029D00092139B18154C0022A25E114C6243D21335
:1029E0009B18134C0022A25E0F4C624392139B1A59
:1029F000104C0022A25E0A4C673C6243D2139A1A22
:102A000010B2084B00229A5E084B1A80054A1180CA
:102A1000074B00229A5E074B1A80054A108010BDB2
:102A2000987F0000C4010020A780FFFFC60100209E
:102A3000C0010020C2010020002004490880044990
:102A4000088004490880044908807047C6010020B6
:102A5000C4010020C2010020C00100200020044960
:102A600008800449088004490880044908807047A8
:102A7000CA010020C8010020DE010020DC01002086
:102A8000054840680549086000200549488102481A
:102A90000088088170470000B8010020AC010020C8
:102AA0000002002010B51248124A01680020105E92
:102AB000FFF738FE0E48006846300D49086000BF39
:102AC00008460068002805DA084600680A494018E8
:102AD00007490860064800680749884204DD044841
:102AE0000068401A0249086000BF002010BD0000C5
:102AF0003400002030000020FEFF000070B5464981
:102B00000869FFF747FF45490989401A05B244485B
:102B1000007800280DD12846FFF7CAFB4049888578
:102B20002846FFF74BFF3D49896840183A498861BC
:102B300004E03A4880684019374988613648C069DE
:102B40003549896940183449C861C869C821FEF708
:102B5000F7FB314908620846C069096A401A2E49E4
:102B6000C861086AFFF716FF2B4948620A46516A96
:102B70002A4AD06900F03AFD04B22A48844202DDB4
:102B80002649888609E027484042844202DA2349E0
:102B9000888602E020B22149888620483421415E9F
:102BA0002148FEF704F906B21C4A383231461F4864
:102BB000FEF78EFD1948806BC01300B21749C88616
:102BC0001548006B144934228A5E80180863084651
:102BD000008C0A46128E801A01B21548FEF7E7F8FB
:102BE00000B20D4988860846808E400100B2C88632
:102BF0000846C08E08850948C08E098D401A00B26B
:102C00000549488508462A21415E0A48FEF7CFF863
:102C100000B20249888770BD1802002064020020BB
:102C2000B4020020B77E0000980000206606000075
:102C3000E8000020C000002010B5504800780028AF
:102C400004D0012819D002287ED193E000204B49FE
:102C50004860886088814A48C881002008824848C6
:102C6000488200208882C8820120087000204549DF
:102C700048810881444908607EE040484068401D22
:102C80003E4948604868FFF785FE3F4908600021DB
:102C90003E48FEF7C1F9044638481422825E2146B8
:102CA000FF204830FEF70CFD344988820021384867
:102CB000FEF7B2F9044631481622825E2146FF2013
:102CC0004830FEF7FDFC2D49C8820846406831496E
:102CD000884227DD29491420085E0C228A5E904232
:102CE00002DD0846808A888124491420085E0E226D
:102CF0008A5E904202DA0846808AC8811F491620FF
:102D0000085E10228A5E904202DD0846C08A088270
:102D10001A491620085E12228A5E904202DA08469C
:102D2000C08A4882154840681B4988421BDD134908
:102D30000C20085E0E228A5E801840101749088019
:102D40000E491020085E00E015E012228A5E80180D
:102D500040101349088000200A4948810881022058
:102D60000649087005E0002006494881034840886C
:102D7000088101E000E000BF00BF10BD300300206B
:102D8000FF7F000000020020AC0100200005014090
:102D9000000401401C070000F4FF0500A001002012
:102DA000A201002010B52B480078002804D001288B
:102DB00013D0022848D146E000202749086027495F
:102DC000086024484088264908810020488121491C
:102DD000486088600120087037E01E484068401C49
:102DE0001C494860084640681E4988422ADD08465A
:102DF000184948601C498868FFF7CCFD16490968E6
:102E000040181549086013488068401C11498860C3
:102E1000084680681549884214DD0E4881680E48CE
:102E20000068FEF78DFA0D490860084600680949F8
:102E3000C8600F49C868FFF79BFD0D4988600220F4
:102E40000449087001E000E000BF00BF002009490C
:102E5000086010BD500200208C010020900100206D
:102E600000020020F82A0000180200209808000044
:102E700064020020AC01002070B5D348007800281F
:102E800006D0012828D002287AD0032877D1C6E0BE
:102E90000020CE490860CE490860CB4988610861AE
:102EA000086248620863C861CA48FDF77BFFCA48E8
:102EB000FDF778FFC948FDF775FFC9498868FFF736
:102EC00069FDC74988608868FFF752FDC4490861F9
:102ED0000120BD490870A4E0BB488069401CBA4984
:102EE0008861BF498868FFF755FDB84909684018EF
:102EF000B6490860B44880697D21C900884224DD54
:102F0000B1488169B1480068FEF71AFAB049086013
:102F100008460068FFF73EFDAB494860072088601F
:102F20000A465168AF4AD06800F060FBA649C86005
:102F30000846C068002802DD0120487002E0002039
:102F4000A14948700220A04908709F48006AA4491E
:102F5000096940189C490862086A6421FEF7F0F983
:102F6000994948620846006A496A401A96490862C7
:102F70000846406A88630020888752E000E04FE0FE
:102F800091480069401C904908610846006905287D
:102F900044DB002008610846407800281ED008461F
:102FA000C068896888420DDD8748C068864989689D
:102FB000401A8549C86008464068896840188249B7
:102FC00048602BE0804840687F49C96840187E49C6
:102FD00048600020C860032008701FE07A48C0687D
:102FE00079498968494288420DDA7748C06876494C
:102FF000896840187449C860084640688968401A62
:10300000714948600AE0704840686F49C9684018D3
:103010006D4948600020C8600320087001E000E0AE
:1030200000BF00BF68480078022808DA00206E4917
:10303000488108816A4800696C490860C2E06248BA
:10304000006A6749096940185F490862086A642193
:10305000FEF776F95C4948620846006A496A401AF8
:1030600059490862486AFFF795FC57498862084643
:10307000406840005E490969401A53494861084662
:103080004069496A441A5B48844202DD4E4988859A
:1030900009E058484042844202DA4B49888502E000
:1030A00020B2494988854848806B47493C228A5E5E
:1030B000801888630846808C0A46128F801A01B2F5
:1030C0004648FDF774FE00B23F4988870846808F66
:1030D000400100B2C88708462C21415E3D48FDF7FB
:1030E00066FE05B2384A303229464348FEF7F0FA08
:1030F0003548006BC01300B23349C8850846C08DFF
:10310000C98F401A00B23049888608463421415E92
:103110003148FDF74CFE01B22B4840300180403869
:10312000007803283FD128492C20085E00F072FA6D
:10313000FF21F531884205DA2348C069401C224945
:10314000C86108E02048C069002804DD1E48C06945
:10315000401E1D49C8611C492C20085E00F05AFA27
:103160000546194840300021415E021D2846FEF701
:10317000AFFA1549C869FDF7A0FB054600221F4BB1
:1031800000F054FA0AD2DC200F49C8610846406CAE
:10319000C01301B20C484030018108E00A484030B9
:1031A0000188018103E00848403001880181064818
:1031B000403000890C494881002008810248806A1B
:1031C0000A49086070BD0000E40200208C01002064
:1031D0009001002010010020380100206001002033
:1031E000180200206402002000020020AC01002030
:1031F00050020020B77E0000CC0C000000806B4025
:1032000010B522480078002804D0012810D00228E8
:1032100036D134E000201E4908601E4908601E496E
:1032200008601E490881488101201849087028E07B
:103230001B498868FFF7AEFB154909684018144917
:10324000086015480068401C13490860084600687B
:10325000642813DD084601680D480068FEF770F821
:103260000C490860084600680E49C860C868FFF746
:103270007FFB0C49886002200449087001E000E0EF
:1032800000BF00BF00200849086010BDB401002045
:103290008C010020900100209401002000020020F9
:1032A0001802002064020020AC01002010B52E4856
:1032B0000078002804D001280BD0022850D147E024
:1032C0000120294948700020886048610120087069
:1032D00047E025484069401C234948610846406949
:1032E0000969884218D220488068401C1E498860BD
:1032F000084680684968884211D91B4840780028F0
:1033000003D000201849487002E001201649487097
:1033100000201549886002E002201349087000204F
:103320001249088110484078002804D00E4880894E
:1033300000B2488105E00C488089404200B20B4948
:1033400048810B498868FFF725FB0A49086008E0B7
:10335000002006494881088104200749087000E0E0
:1033600000BF00BF10BD0000480300200002002085
:1033700064020020AC0100208A01002010B5FFF794
:10338000BDFB91480079002803D000218E480171CF
:1033900000BF8D482030407B00281ED18B488068BC
:1033A00089492039C9688A4A891A884207DB8748CF
:1033B000806885492039C968891888422DDD85488B
:1033C000006A401C834908620846006A162824D90E
:1033D00001217D48203041731FE07B482038C068C0
:1033E0007D49401A79498968884216DA77488068A9
:1033F00075492039C968784A891888420DDA7548B4
:10340000006A002805DD7348006A401E71490862A1
:1034100003E000216C48203041736E482C21415E4E
:10342000002906DD406A6B492C228A5E80184862BA
:1034300006E06848406A67492C228A5E801A486222
:103440006448406A0012634988620846406A896A93
:10345000401A6049486208468069401C88610846F5
:103460008069496988421BDD00205A498861084605
:10347000007F00280AD000200877084600894042D3
:10348000498A401A00B25349488109E00120514954
:10349000087708460089498A401800B24D4948819A
:1034A00049482030407B002802D00020494948810B
:1034B000454820381821415600291CDDC069424981
:1034C0002039096A401840492039C8610846C06956
:1034D000096988422DDB3C48203800693A49203987
:1034E000C861002008760121374801710020364963
:1034F000203988621DE034482038C06932492039BB
:10350000096A401A30492039C8610846C0694969CA
:1035100088420EDC2C48203840692B492039C8618C
:103520000120087601212848017100202649203910
:10353000886225482030407B002819D023488068C5
:1035400021492039C968884205DA002023490881C9
:103550002348488105E00020204908812048404256
:1035600048811A490869FFF715FA1E4908602AE0E0
:1035700000201A490881144920393C20085E154969
:103580000A228A5E84182046002801DA414200E0BF
:1035900001461548814209D9002C02DD0F494881B6
:1035A0000DE0114840420D49488108E006482038A6
:1035B000808F08494989401800B20849488103486A
:1035C000406A0849086010BD8402002018020020EB
:1035D000AA2A0000B40200202202000000020020FB
:1035E00098590000AC010020F46800000246501A0F
:1035F000064B984202DB5B00C01A05E0034B5B42BE
:10360000984201DC024BC01870470000FF7F0000A9
:10361000FEFF00000146002902DA484280B27047EE
:1036200088B2FCE710B5FEF7E4FD10BD70B50125CA
:103630001C002D050C4310D4EC4206D4AC420AD435
:103640008B4200D070BD824270BDEB4217D4E9427C
:1036500015D48B4270BD9B4270BDEC4206D5AC4286
:10366000F9D5994200D070BD904270BD6D005C00EC
:10367000EC4204D24C00EC4201D2994270BD0FB42E
:10368000034C0CBC03BC30B4FDF77AFA30BC70BDFF
:103690001900160480807F7E7D7C7B7A797877762E
:1036A00076757473727171706F6E6E6D6C6C6B6A1F
:1036B0006A696868676666656464636362616160BD
:1036C000605F5F5E5E5D5D5C5C5B5B5A5A5959583A
:1036D00058575756565555555454535352525251A4
:1036E000515050504F4F4F4E4E4D4D4D4C4C4C4BFA
:1036F0004B4B4A4A4A494949484848474747474641
:10370000464645454544444444434343434242427C
:10371000424141413437000000000020E001000038
:10372000120D0000B4370000E00100201008000076
:103730000401000001100A1D01080316FF3F1201D9
:1037400065FF0FFF0F800998999939686666C61A58
:103750000C02691419485B40474D2399198567E6A7
:10376000FFFF120E7A0F141950796A2365668B9B3E
:1037700099281A0F026914120174EC4FA323985967
:103780008B68A6281A0A28691419736A6078E9A058
:10379000297889A083FF072332538BCEAC501A0CB3
:1037A000286914A97823CC4CCB34B3786914092642
:0437B0007801580044
:04000005000000C136
:00000001FF
